{
  "address": "0xA38548b19A9eBA627ac114b08B6e7175F2b9Ae2f",
  "abi": [
    {
      "inputs": [
        {
          "internalType": "address payable",
          "name": "_ownerAddress",
          "type": "address"
        },
        {
          "internalType": "address",
          "name": "_stakingAddress",
          "type": "address"
        }
      ],
      "stateMutability": "nonpayable",
      "type": "constructor"
    },
    {
      "anonymous": false,
      "inputs": [
        {
          "indexed": true,
          "internalType": "string",
          "name": "_daoID",
          "type": "string"
        },
        {
          "indexed": false,
          "internalType": "address[]",
          "name": "_genesisTokenAddressList",
          "type": "address[]"
        },
        {
          "indexed": false,
          "internalType": "uint256[]",
          "name": "_genesisTokenAmountList",
          "type": "uint256[]"
        },
        {
          "indexed": false,
          "internalType": "uint256",
          "name": "_lpRatio",
          "type": "uint256"
        },
        {
          "indexed": false,
          "internalType": "address",
          "name": "_ownerAddress",
          "type": "address"
        },
        {
          "components": [
            {
              "internalType": "uint128",
              "name": "p",
              "type": "uint128"
            },
            {
              "internalType": "uint16",
              "name": "aNumerator",
              "type": "uint16"
            },
            {
              "internalType": "uint16",
              "name": "aDenominator",
              "type": "uint16"
            },
            {
              "internalType": "uint16",
              "name": "bNumerator",
              "type": "uint16"
            },
            {
              "internalType": "uint16",
              "name": "bDenominator",
              "type": "uint16"
            },
            {
              "internalType": "uint16",
              "name": "c",
              "type": "uint16"
            },
            {
              "internalType": "uint16",
              "name": "d",
              "type": "uint16"
            }
          ],
          "indexed": false,
          "internalType": "struct MintMath.MintArgs",
          "name": "_mintArgs",
          "type": "tuple"
        },
        {
          "indexed": false,
          "internalType": "string",
          "name": "_erc20Name",
          "type": "string"
        },
        {
          "indexed": false,
          "internalType": "string",
          "name": "_erc20Symbol",
          "type": "string"
        },
        {
          "indexed": false,
          "internalType": "address",
          "name": "_token",
          "type": "address"
        }
      ],
      "name": "Deploy",
      "type": "event"
    },
    {
      "inputs": [
        {
          "internalType": "string",
          "name": "_daoID",
          "type": "string"
        },
        {
          "internalType": "address[]",
          "name": "_genesisTokenAddressList",
          "type": "address[]"
        },
        {
          "internalType": "uint256[]",
          "name": "_genesisTokenAmountList",
          "type": "uint256[]"
        },
        {
          "internalType": "uint256",
          "name": "_lpRatio",
          "type": "uint256"
        },
        {
          "internalType": "address payable",
          "name": "_ownerAddress",
          "type": "address"
        },
        {
          "components": [
            {
              "internalType": "uint128",
              "name": "p",
              "type": "uint128"
            },
            {
              "internalType": "uint16",
              "name": "aNumerator",
              "type": "uint16"
            },
            {
              "internalType": "uint16",
              "name": "aDenominator",
              "type": "uint16"
            },
            {
              "internalType": "uint16",
              "name": "bNumerator",
              "type": "uint16"
            },
            {
              "internalType": "uint16",
              "name": "bDenominator",
              "type": "uint16"
            },
            {
              "internalType": "uint16",
              "name": "c",
              "type": "uint16"
            },
            {
              "internalType": "uint16",
              "name": "d",
              "type": "uint16"
            }
          ],
          "internalType": "struct MintMath.MintArgs",
          "name": "_mintArgs",
          "type": "tuple"
        },
        {
          "internalType": "string",
          "name": "_erc20Name",
          "type": "string"
        },
        {
          "internalType": "string",
          "name": "_erc20Symbol",
          "type": "string"
        }
      ],
      "name": "deploy",
      "outputs": [
        {
          "internalType": "address",
          "name": "token",
          "type": "address"
        }
      ],
      "stateMutability": "nonpayable",
      "type": "function"
    },
    {
      "inputs": [],
      "name": "destruct",
      "outputs": [],
      "stateMutability": "nonpayable",
      "type": "function"
    },
    {
      "inputs": [],
      "name": "owner",
      "outputs": [
        {
          "internalType": "address",
          "name": "",
          "type": "address"
        }
      ],
      "stateMutability": "view",
      "type": "function"
    },
    {
      "inputs": [],
      "name": "staking",
      "outputs": [
        {
          "internalType": "address",
          "name": "",
          "type": "address"
        }
      ],
      "stateMutability": "view",
      "type": "function"
    },
    {
      "inputs": [
        {
          "internalType": "string",
          "name": "",
          "type": "string"
        }
      ],
      "name": "tokens",
      "outputs": [
        {
          "internalType": "address",
          "name": "",
          "type": "address"
        }
      ],
      "stateMutability": "view",
      "type": "function"
    },
    {
      "inputs": [
        {
          "internalType": "address payable",
          "name": "_newOwner",
          "type": "address"
        }
      ],
      "name": "transferOwnership",
      "outputs": [],
      "stateMutability": "nonpayable",
      "type": "function"
    }
  ],
  "transactionHash": "0xd46e56aaba2a6aa7f777359ca0979545f5db0a088afb731810ac8111f765878f",
  "args": [
    "0x3946d96a4b46657ca95CBE85d8a60b822186Ad1f",
    "0x088483a6AA7DB6c0E55dF573Af23D176545Ddf36"
  ],
  "solcInputHash": "f69a72076c027afc78e230ca62f81ac9",
  "bytecode": "0x60a060405234801561001057600080fd5b5060405161609638038061609683398101604081905261002f91610065565b600080546001600160a01b0319166001600160a01b03939093169290921790915560601b6001600160601b0319166080526100b6565b60008060408385031215610077578182fd5b82516100828161009e565b60208401519092506100938161009e565b809150509250929050565b6001600160a01b03811681146100b357600080fd5b50565b60805160601c615fbc6100da6000396000818160e501526103040152615fbc6000f3fe60806040523480156200001157600080fd5b50600436106200007b5760003560e01c80638da5cb5b11620000565780638da5cb5b1462000107578063d53a45f91462000119578063f2fde38b146200013057600080fd5b806304c2320b14620000805780632b68b9c614620000d35780634cf088d914620000df575b600080fd5b620000b7620000913660046200078c565b80516020818301810180516001825292820191909301209152546001600160a01b031681565b6040516001600160a01b03909116815260200160405180910390f35b620000dd62000147565b005b620000b77f000000000000000000000000000000000000000000000000000000000000000081565b6000546001600160a01b0316620000b7565b620000b76200012a366004620007cb565b620001c1565b620000dd620001413660046200076d565b62000420565b6000546001600160a01b03163314620001b35760405162461bcd60e51b8152602060048201526024808201527f49435044414f3a204f4e4c59204f574e45522043414e2043414c4c2044455354604482015263149550d560e21b60648201526084015b60405180910390fd5b6000546001600160a01b0316ff5b6000806001600160a01b031660018a604051620001df91906200097d565b908152604051908190036020019020546001600160a01b031614620002ff57600060018a6040516200021291906200097d565b908152604080516020928190038301812054638da5cb5b60e01b825291516001600160a01b0390921693508392638da5cb5b92600480840193829003018186803b1580156200026057600080fd5b505afa15801562000275573d6000803e3d6000fd5b505050506040513d601f19601f820116820180604052508101906200029b919062000747565b6001600160a01b0316336001600160a01b031614620002fd5760405162461bcd60e51b815260206004820152601d60248201527f49435044414f3a204e4f54204f574e455220444f2052454445504c4f590000006044820152606401620001aa565b505b8787877f000000000000000000000000000000000000000000000000000000000000000088888888604051620003359062000503565b6200034898979695949392919062000a96565b604051809103906000f08015801562000365573d6000803e3d6000fd5b5090508060018a6040516200037b91906200097d565b90815260405190819003602001812080546001600160a01b039390931673ffffffffffffffffffffffffffffffffffffffff1990931692909217909155620003c5908a906200097d565b60405180910390207f61e64b0c3415c2e0c637db1d8fb95552364c6f432a7cfeef0d8fcf2a9d59d97b89898989898989896040516200040c9897969594939291906200099b565b60405180910390a298975050505050505050565b6000546001600160a01b031633146200047c5760405162461bcd60e51b815260206004820152601160248201527f49435044414f3a204e4f54204f574e45520000000000000000000000000000006044820152606401620001aa565b6001600160a01b038116620004d45760405162461bcd60e51b815260206004820152601960248201527f49435044414f3a204e4557204f574e455220494e56414c4944000000000000006044820152606401620001aa565b6000805473ffffffffffffffffffffffffffffffffffffffff19166001600160a01b0392909216919091179055565b61530f8062000c7883390190565b80356200051e8162000c5e565b919050565b600082601f83011262000534578081fd5b813560206200054d620005478362000bee565b62000bba565b80838252828201915082860187848660051b89010111156200056d578586fd5b855b8581101562000598578135620005858162000c5e565b845292840192908401906001016200056f565b5090979650505050505050565b600082601f830112620005b6578081fd5b81356020620005c9620005478362000bee565b80838252828201915082860187848660051b8901011115620005e9578586fd5b855b858110156200059857813584529284019290840190600101620005eb565b600082601f8301126200061a578081fd5b813567ffffffffffffffff81111562000637576200063762000c48565b6200064c601f8201601f191660200162000bba565b81815284602083860101111562000661578283fd5b816020850160208301379081016020019190915292915050565b600060e082840312156200068d578081fd5b6200069762000b8e565b905081356fffffffffffffffffffffffffffffffff81168114620006ba57600080fd5b8152620006ca6020830162000734565b6020820152620006dd6040830162000734565b6040820152620006f06060830162000734565b6060820152620007036080830162000734565b60808201526200071660a0830162000734565b60a08201526200072960c0830162000734565b60c082015292915050565b803561ffff811681146200051e57600080fd5b60006020828403121562000759578081fd5b8151620007668162000c5e565b9392505050565b6000602082840312156200077f578081fd5b8135620007668162000c5e565b6000602082840312156200079e578081fd5b813567ffffffffffffffff811115620007b5578182fd5b620007c38482850162000609565b949350505050565b6000806000806000806000806101c0898b031215620007e8578384fd5b883567ffffffffffffffff8082111562000800578586fd5b6200080e8c838d0162000609565b995060208b013591508082111562000824578586fd5b620008328c838d0162000523565b985060408b013591508082111562000848578586fd5b620008568c838d01620005a5565b975060608b013596506200086d60808c0162000511565b95506200087e8c60a08d016200067b565b94506101808b013591508082111562000895578384fd5b620008a38c838d0162000609565b93506101a08b0135915080821115620008ba578283fd5b50620008c98b828c0162000609565b9150509295985092959890939650565b6000815180845260208085019450808401835b83811015620009135781516001600160a01b031687529582019590820190600101620008ec565b509495945050505050565b6000815180845260208085019450808401835b83811015620009135781518752958201959082019060010162000931565b600081518084526200096981602086016020860162000c15565b601f01601f19169290920160200192915050565b600082516200099181846020870162000c15565b9190910192915050565b60006101c0808352620009b18184018c620008d9565b90508281036020840152620009c7818b6200091e565b90508860408401526001600160a01b03808916606085015262000a5060808501896fffffffffffffffffffffffffffffffff8151168252602081015161ffff80821660208501528060408401511660408501528060608401511660608501528060808401511660808501528060a08401511660a08501528060c08401511660c085015250505050565b83820361016085015262000a6582886200094f565b915083820361018085015262000a7c82876200094f565b92508085166101a085015250509998505050505050505050565b60006101c080835262000aac8184018c620008d9565b9050828103602084015262000ac2818b6200091e565b604084018a90526001600160a01b03898116606086015288166080850152905062000b5360a08401876fffffffffffffffffffffffffffffffff8151168252602081015161ffff80821660208501528060408401511660408501528060608401511660608501528060808401511660808501528060a08401511660a08501528060c08401511660c085015250505050565b82810361018084015262000b6881866200094f565b90508281036101a084015262000b7f81856200094f565b9b9a5050505050505050505050565b60405160e0810167ffffffffffffffff8111828210171562000bb45762000bb462000c48565b60405290565b604051601f8201601f1916810167ffffffffffffffff8111828210171562000be65762000be662000c48565b604052919050565b600067ffffffffffffffff82111562000c0b5762000c0b62000c48565b5060051b60200190565b60005b8381101562000c3257818101518382015260200162000c18565b8381111562000c42576000848401525b50505050565b634e487b7160e01b600052604160045260246000fd5b6001600160a01b038116811462000c7457600080fd5b5056fe60e06040523480156200001157600080fd5b506040516200530f3803806200530f83398101604081905262000034916200078a565b8151829082906200004d90600390602085019062000471565b5080516200006390600490602084019062000471565b5050508651885114620000d55760405162461bcd60e51b815260206004820152602f60248201527f49435044414f3a2047454e455349532041444452455353204c454e475448202160448201526e07a40829a9eaa9ca840988a9c8ea89608b1b60648201526084015b60405180910390fd5b60005b88518110156200015957620001448982815181106200010757634e487b7160e01b600052603260045260246000fd5b60200260200101518983815181106200013057634e487b7160e01b600052603260045260246000fd5b60200260200101516200029a60201b60201c565b806200015081620009a2565b915050620000d8565b5060006200016660025490565b1115620001a557620001936064876200017e60025490565b6200037f60201b62001eb3179092919060201c565b6008819055620001a59030906200029a565b620001c2834260096200038560201b62001eb9179092919060201c565b600580546001600160a01b0319166001600160a01b038616179055606085901b6001600160601b03191660a05260c0869052604080516312a9293f60e21b8152905173c36442b4a4522e871399cd717abdd847ab11fe8891634aa4a4fc916004808301926020929190829003018186803b1580156200024057600080fd5b505afa15801562000255573d6000803e3d6000fd5b505050506040513d601f19601f820116820180604052508101906200027b919062000764565b60601b6001600160601b0319166080525062000a059650505050505050565b6001600160a01b038216620002f25760405162461bcd60e51b815260206004820152601f60248201527f45524332303a206d696e7420746f20746865207a65726f2061646472657373006044820152606401620000cc565b806002600082825462000306919062000907565b90915550506001600160a01b038216600090815260208190526040812080548392906200033590849062000907565b90915550506040518181526001600160a01b038316906000907fddf252ad1be2c89b69c2b068fc378daa952ba7f163c4a11628f55a4df523b3ef9060200160405180910390a35050565b91040290565b81518354602084015160408501516060860151608087015160a088015160c08901516001600160801b039097166001600160901b031990961695909517600160801b61ffff958616021763ffffffff60901b1916600160901b9385169390930261ffff60a01b191692909217600160a01b918416919091021763ffffffff60b01b1916600160b01b9183169190910261ffff60c01b191617600160c01b928216929092029190911761ffff60d01b1916600160d01b919092160217835562000451620151808262000922565b62000460906201518062000943565b600184015550506000600290910155565b8280546200047f9062000965565b90600052602060002090601f016020900481019282620004a35760008555620004ee565b82601f10620004be57805160ff1916838001178555620004ee565b82800160010185558215620004ee579182015b82811115620004ee578251825591602001919060010190620004d1565b50620004fc92915062000500565b5090565b5b80821115620004fc576000815560010162000501565b80516200052481620009ec565b919050565b600082601f8301126200053a578081fd5b81516020620005536200054d83620008e1565b620008ae565b80838252828201915082860187848660051b890101111562000573578586fd5b855b858110156200059e5781516200058b81620009ec565b8452928401929084019060010162000575565b5090979650505050505050565b600082601f830112620005bc578081fd5b81516020620005cf6200054d83620008e1565b80838252828201915082860187848660051b8901011115620005ef578586fd5b855b858110156200059e57815184529284019290840190600101620005f1565b600082601f83011262000620578081fd5b81516001600160401b038111156200063c576200063c620009d6565b602062000652601f8301601f19168201620008ae565b828152858284870101111562000666578384fd5b835b838110156200068557858101830151828201840152820162000668565b838111156200069657848385840101525b5095945050505050565b600060e08284031215620006b2578081fd5b620006bc62000883565b82519091506001600160801b0381168114620006d757600080fd5b8152620006e76020830162000751565b6020820152620006fa6040830162000751565b60408201526200070d6060830162000751565b6060820152620007206080830162000751565b60808201526200073360a0830162000751565b60a08201526200074660c0830162000751565b60c082015292915050565b805161ffff811681146200052457600080fd5b60006020828403121562000776578081fd5b81516200078381620009ec565b9392505050565b6000806000806000806000806101c0898b031215620007a7578384fd5b88516001600160401b0380821115620007be578586fd5b620007cc8c838d0162000529565b995060208b0151915080821115620007e2578586fd5b620007f08c838d01620005ab565b985060408b015197506200080760608c0162000517565b96506200081760808c0162000517565b9550620008288c60a08d01620006a0565b94506101808b01519150808211156200083f578384fd5b6200084d8c838d016200060f565b93506101a08b015191508082111562000864578283fd5b50620008738b828c016200060f565b9150509295985092959890939650565b60405160e081016001600160401b0381118282101715620008a857620008a8620009d6565b60405290565b604051601f8201601f191681016001600160401b0381118282101715620008d957620008d9620009d6565b604052919050565b60006001600160401b03821115620008fd57620008fd620009d6565b5060051b60200190565b600082198211156200091d576200091d620009c0565b500190565b6000826200093e57634e487b7160e01b81526012600452602481fd5b500490565b6000816000190483118215151615620009605762000960620009c0565b500290565b600181811c908216806200097a57607f821691505b602082108114156200099c57634e487b7160e01b600052602260045260246000fd5b50919050565b6000600019821415620009b957620009b9620009c0565b5060010190565b634e487b7160e01b600052601160045260246000fd5b634e487b7160e01b600052604160045260246000fd5b6001600160a01b038116811462000a0257600080fd5b50565b60805160601c60a05160601c60c0516148b162000a5e600039600081816106960152611812015260008181610393015281816128ae015261292301526000818161035d01528181610db50152610f7b01526148b16000f3fe6080604052600436106101e75760003560e01c806370a0823111610102578063a9059cbb11610095578063f2fde38b11610064578063f2fde38b14610644578063f3ae241514610664578063f70b6f8c14610684578063f80219d0146106b857600080fd5b8063a9059cbb1461059e578063ac18de43146105be578063dd62ed3e146105de578063e50092bf1461062457600080fd5b806390858d89116100d157806390858d891461052957806395d89b4114610549578063a0b38a541461055e578063a457c2d71461057e57600080fd5b806370a082311461049357806372311705146104c9578063877562b6146104eb5780638da5cb5b1461050b57600080fd5b80633737bcb41161017a57806350afeeb81161014957806350afeeb8146103b557806352751ee5146103c85780635ee167c0146103dd5780636d2ddb8a146103fd57600080fd5b80633737bcb4146102f6578063395093511461032e5780634aa4a4fc1461034e5780634cf088d91461038157600080fd5b806323b872dd116101b657806323b872dd146102835780632b68b9c6146102a35780632d06177a146102ba578063313ce567146102da57600080fd5b806306fdde03146101f3578063095ea7b31461021e57806318160ddd1461024e5780631f2121701461026d57600080fd5b366101ee57005b600080fd5b3480156101ff57600080fd5b506102086106e0565b604051610215919061437e565b60405180910390f35b34801561022a57600080fd5b5061023e610239366004613d83565b610772565b6040519015158152602001610215565b34801561025a57600080fd5b506002545b604051908152602001610215565b34801561027957600080fd5b5061025f60085481565b34801561028f57600080fd5b5061023e61029e366004613d43565b610789565b3480156102af57600080fd5b506102b861083a565b005b3480156102c657600080fd5b506102b86102d5366004613cd3565b61089f565b3480156102e657600080fd5b5060405160128152602001610215565b34801561030257600080fd5b50600e54610316906001600160a01b031681565b6040516001600160a01b039091168152602001610215565b34801561033a57600080fd5b5061023e610349366004613d83565b610998565b34801561035a57600080fd5b507f0000000000000000000000000000000000000000000000000000000000000000610316565b34801561038d57600080fd5b506103167f000000000000000000000000000000000000000000000000000000000000000081565b6102b86103c3366004614032565b6109d4565b3480156103d457600080fd5b506102b8611250565b3480156103e957600080fd5b50600c54610316906001600160a01b031681565b34801561040957600080fd5b50600954600a54600b54604080516001600160801b038516815261ffff600160801b860481166020830152600160901b8604811692820192909252600160a01b850482166060820152600160b01b850482166080820152600160c01b8504821660a0820152600160d01b9094041660c084015260e083019190915261010082015261012001610215565b34801561049f57600080fd5b5061025f6104ae366004613cd3565b6001600160a01b031660009081526020819052604090205490565b3480156104d557600080fd5b506104de61140b565b6040516102159190614292565b3480156104f757600080fd5b50600d54610316906001600160a01b031681565b34801561051757600080fd5b506005546001600160a01b0316610316565b34801561053557600080fd5b506102b8610544366004613dae565b6114da565b34801561055557600080fd5b50610208611939565b34801561056a57600080fd5b506102b86105793660046140b5565b611948565b34801561058a57600080fd5b5061023e610599366004613d83565b611b0e565b3480156105aa57600080fd5b5061023e6105b9366004613d83565b611ba7565b3480156105ca57600080fd5b506102b86105d9366004613cd3565b611bb4565b3480156105ea57600080fd5b5061025f6105f9366004613d0b565b6001600160a01b03918216600090815260016020908152604080832093909416825291909152205490565b34801561063057600080fd5b506102b861063f366004613ea4565b611ca6565b34801561065057600080fd5b506102b861065f366004613cd3565b611dab565b34801561067057600080fd5b5061023e61067f366004613cd3565b611ea6565b34801561069057600080fd5b5061025f7f000000000000000000000000000000000000000000000000000000000000000081565b3480156106c457600080fd5b5061031673c36442b4a4522e871399cd717abdd847ab11fe8881565b6060600380546106ef90614793565b80601f016020809104026020016040519081016040528092919081815260200182805461071b90614793565b80156107685780601f1061073d57610100808354040283529160200191610768565b820191906000526020600020905b81548152906001019060200180831161074b57829003601f168201915b5050505050905090565b600061077f33848461202a565b5060015b92915050565b600061079684848461214e565b6001600160a01b0384166000908152600160209081526040808320338452909152902054828110156108205760405162461bcd60e51b815260206004820152602860248201527f45524332303a207472616e7366657220616d6f756e74206578636565647320616044820152676c6c6f77616e636560c01b60648201526084015b60405180910390fd5b61082d853385840361202a565b60019150505b9392505050565b6005546001600160a01b0316336001600160a01b0316146108915760405162461bcd60e51b815260206004820152601160248201527024a1a82220a79d102727aa1027aba722a960791b6044820152606401610817565b6005546001600160a01b0316ff5b6005546001600160a01b0316336001600160a01b0316146108f65760405162461bcd60e51b815260206004820152601160248201527024a1a82220a79d102727aa1027aba722a960791b6044820152606401610817565b6001600160a01b03811661094c5760405162461bcd60e51b815260206004820152601860248201527f49435044414f3a204d414e4741474552204953205a45524f00000000000000006044820152606401610817565b61095760068261231e565b506040516001600160a01b03821681527f3630096a7f9a158ab9fae41e86bfe31fd2202585a26a9668242672566dae028d906020015b60405180910390a150565b3360008181526001602090815260408083206001600160a01b0387168452909152812054909161077f9185906109cf908690614510565b61202a565b6005546001600160a01b0316336001600160a01b031614610a2b5760405162461bcd60e51b815260206004820152601160248201527024a1a82220a79d102727aa1027aba722a960791b6044820152606401610817565b60008711610a865760405162461bcd60e51b815260206004820152602260248201527f49435044414f3a204241534520544f4b454e20414d4f554e54204d555354203e604482015261020360f41b6064820152608401610817565b60008511610ae25760405162461bcd60e51b815260206004820152602360248201527f49435044414f3a2051554f544520544f4b454e20414d4f554e54204d5553542060448201526203e20360ec1b6064820152608401610817565b600854871115610b3f5760405162461bcd60e51b815260206004820152602260248201527f49435044414f3a204e4f5420454e4f5547482054454d504f52415259414d4f55604482015261139560f21b6064820152608401610817565b6001600160a01b038616610b955760405162461bcd60e51b815260206004820152601d60248201527f49435044414f3a2051554f544520544f4b454e204e4f542045584953540000006044820152606401610817565b6001600160a01b038616301415610c005760405162461bcd60e51b815260206004820152602960248201527f49435044414f3a2051554f544520544f4b454e2043414e204e4f54204245204260448201526820a9a2902a27a5a2a760b91b6064820152608401610817565b8362ffffff166101f41480610c1b57508362ffffff16610bb8145b80610c2c57508362ffffff16612710145b610c785760405162461bcd60e51b815260206004820152601360248201527f49435044414f3a2046454520494e56414c4944000000000000000000000000006044820152606401610817565b600073c36442b4a4522e871399cd717abdd847ab11fe8890506000816001600160a01b031663c45a01556040518163ffffffff1660e01b815260040160206040518083038186803b158015610ccc57600080fd5b505afa158015610ce0573d6000803e3d6000fd5b505050506040513d601f19601f82011682018060405250810190610d049190613cef565b604051630b4c774160e11b81523060048201526001600160a01b038a8116602483015262ffffff891660448301529190911690631698ee829060640160206040518083038186803b158015610d5857600080fd5b505afa158015610d6c573d6000803e3d6000fd5b505050506040513d601f19601f82011682018060405250810190610d909190613cef565b9050610db33073c36442b4a4522e871399cd717abdd847ab11fe88600019612333565b7f00000000000000000000000000000000000000000000000000000000000000006001600160a01b0316886001600160a01b031614610e2b57610e166001600160a01b03891673c36442b4a4522e871399cd717abdd847ab11fe88600019612333565b610e2b6001600160a01b03891633308a6124ae565b6000806001600160a01b038316610ea157610e566001600160a01b0385168c8c8c8c8c8c8c346124e6565b600d80546001600160a01b03199081166001600160a01b0395861617909155600c8054821695851695909517909455600e805490941694909216939093179091559092509050610f79565b6000610eb18c8c8c8c8c8c612666565b600e80546001600160a01b038088166001600160a01b0319928316179092558251600c80549184169183169190911790556020830151600d805491841691909216179055604051634418b22b60e11b81529192508616906388316456903490610f1e9085906004016143b1565b6080604051808303818588803b158015610f3757600080fd5b505af1158015610f4b573d6000803e3d6000fd5b50505050506040513d601f19601f82011682018060405250810190610f7091906140f6565b90955093505050505b7f00000000000000000000000000000000000000000000000000000000000000006001600160a01b03168a6001600160a01b031614156110e95773c36442b4a4522e871399cd717abdd847ab11fe886001600160a01b03166312210e8a6040518163ffffffff1660e01b8152600401600060405180830381600087803b15801561100257600080fd5b505af1158015611016573d6000803e3d6000fd5b5050505060004711156110e45760408051600080825260208201909252339047906040516110449190614276565b60006040518083038185875af1925050503d8060008114611081576040519150601f19603f3d011682016040523d82523d6000602084013e611086565b606091505b50509050806110e25760405162461bcd60e51b815260206004820152602260248201527f49435044414f3a20726566756e6420455448207472616e73666572206661696c604482015261195960f21b6064820152608401610817565b505b611181565b6040516370a0823160e01b81523060048201526000906001600160a01b038c16906370a082319060240160206040518083038186803b15801561112b57600080fd5b505afa15801561113f573d6000803e3d6000fd5b505050506040513d601f19601f82011682018060405250810190611163919061401a565b9050801561117f5761117f6001600160a01b038c1633836127a9565b505b600c546001600160a01b03163014156111b15781600860008282546111a69190614750565b909155506111c99050565b80600860008282546111c39190614750565b90915550505b600e54604080518d81526001600160a01b03808e1660208301529181018c905262ffffff8b166060820152818816608082015260028a810b60a083015289900b60c0820152911660e08201527f8e88eb4206bdf114aa000a4766c0aeb962de1a66253c1fda556d7a1904e42939906101000160405180910390a15050505050505050505050565b6040516370a0823160e01b815230600482015260009073c36442b4a4522e871399cd717abdd847ab11fe88906370a082319060240160206040518083038186803b15801561129d57600080fd5b505afa1580156112b1573d6000803e3d6000fd5b505050506040513d601f19601f820116820180604052508101906112d5919061401a565b905060008167ffffffffffffffff81111561130057634e487b7160e01b600052604160045260246000fd5b604051908082528060200260200182016040528015611329578160200160208202803683370190505b50905060005b828110156113fd57604051632f745c5960e01b81523060048201526024810182905273c36442b4a4522e871399cd717abdd847ab11fe8890632f745c599060440160206040518083038186803b15801561138857600080fd5b505afa15801561139c573d6000803e3d6000fd5b505050506040513d601f19601f820116820180604052508101906113c0919061401a565b8282815181106113e057634e487b7160e01b600052603260045260246000fd5b6020908102919091010152806113f5816147c8565b91505061132f565b50611407816127d9565b5050565b6060600061141960066129ae565b67ffffffffffffffff81111561143f57634e487b7160e01b600052604160045260246000fd5b604051908082528060200260200182016040528015611468578160200160208202803683370190505b50905060005b61147860066129ae565b8110156114d45761148a6006826129b8565b8282815181106114aa57634e487b7160e01b600052603260045260246000fd5b6001600160a01b0390921660209283029190910190910152806114cc816147c8565b91505061146e565b50919050565b6114e56006336129c4565b8061150357506005546001600160a01b0316336001600160a01b0316145b61154f5760405162461bcd60e51b815260206004820152601460248201527f4e4f54204f574e4552204f52204d414e414745520000000000000000000000006044820152606401610817565b84518651146115c65760405162461bcd60e51b815260206004820152602c60248201527f49435044414f3a204d494e542041444452455353204c454e47544820213d204160448201527f4d4f554e54204c454e47544800000000000000000000000000000000000000006064820152608401610817565b600a54841461163d5760405162461bcd60e51b815260206004820152603360248201527f49435044414f3a204d494e542053544152542054494d455354414d5020213d2060448201527f4c415354204d494e542054494d455354414d50000000000000000000000000006064820152608401610817565b4283111561169e5760405162461bcd60e51b815260206004820152602860248201527f49435044414f3a204d494e542054494d455354414d50203e20424c4f434b20546044820152670494d455354414d560c41b6064820152608401610817565b600a5483116117155760405162461bcd60e51b815260206004820152602c60248201527f49435044414f3a204d494e542054494d455354414d50203c204c415354204d4960448201527f4e542054494d455354414d5000000000000000000000000000000000000000006064820152608401610817565b60006117226009856129e6565b90506000805b875181101561177d5787818151811061175157634e487b7160e01b600052603260045260246000fd5b602002602001015162ffffff16826117699190614510565b915080611775816147c8565b915050611728565b5060005b875181101561180f576117fd8982815181106117ad57634e487b7160e01b600052603260045260246000fd5b6020026020010151838a84815181106117d657634e487b7160e01b600052603260045260246000fd5b602002602001015162ffffff16866117ee91906146ea565b6117f89190614562565b612bb6565b80611807816147c8565b915050611781565b507f000000000000000000000000000000000000000000000000000000000000000060648304026118403082612bb6565b80600860008282546118529190614510565b9091555050600e546001600160a01b0316156118eb57600e54600090819061189b9073c36442b4a4522e871399cd717abdd847ab11fe88906001600160a01b0316858a8a612c95565b600c5491935091506001600160a01b03163014156118d05781600860008282546118c59190614750565b909155506118e89050565b80600860008282546118e29190614750565b90915550505b50505b7fc49eb5ce1ace8bd2972ed9bbe5d288c34c527e7e413f893d2ecd10ef8ec69ddf8989898989898960405161192697969594939291906142a5565b60405180910390a1505050505050505050565b6060600480546106ef90614793565b6005546001600160a01b0316336001600160a01b03161461199f5760405162461bcd60e51b815260206004820152601160248201527024a1a82220a79d102727aa1027aba722a960791b6044820152606401610817565b6008548311156119fc5760405162461bcd60e51b815260206004820152602260248201527f49435044414f3a204e4f5420454e4f5547482054454d504f52415259414d4f55604482015261139560f21b6064820152608401610817565b600e546001600160a01b0316611a545760405162461bcd60e51b815260206004820152601e60248201527f49435044414f3a204c5020504f4f4c20444f4553204e4f5420455849535400006044820152606401610817565b600e546000908190611a879073c36442b4a4522e871399cd717abdd847ab11fe88906001600160a01b0316878787612c95565b600c5491935091506001600160a01b0316301415611abc578160086000828254611ab19190614750565b90915550611ad49050565b8060086000828254611ace9190614750565b90915550505b6040518581527f9ed28b0d0ade467ee410741c17cd51b21171398478cbbad5e9942f51fa8f56429060200160405180910390a15050505050565b3360009081526001602090815260408083206001600160a01b038616845290915281205482811015611b905760405162461bcd60e51b815260206004820152602560248201527f45524332303a2064656372656173656420616c6c6f77616e63652062656c6f77604482015264207a65726f60d81b6064820152608401610817565b611b9d338585840361202a565b5060019392505050565b600061077f33848461214e565b6005546001600160a01b0316336001600160a01b031614611c0b5760405162461bcd60e51b815260206004820152601160248201527024a1a82220a79d102727aa1027aba722a960791b6044820152606401610817565b6001600160a01b038116611c615760405162461bcd60e51b815260206004820152601760248201527f49435044414f3a204d414e41474552204953205a45524f0000000000000000006044820152606401610817565b611c6c600682612dae565b506040516001600160a01b03821681527f1e25ed4cabec84d314dc176241019653f237da01f2bdd3a10cb0f38b33da67639060200161098d565b73c36442b4a4522e871399cd717abdd847ab11fe8860005b8251811015611da1576000838281518110611ce957634e487b7160e01b600052603260045260246000fd5b60200260200101519050306001600160a01b0316836001600160a01b0316636352211e836040518263ffffffff1660e01b8152600401611d2b91815260200190565b60206040518083038186803b158015611d4357600080fd5b505afa158015611d57573d6000803e3d6000fd5b505050506040513d601f19601f82011682018060405250810190611d7b9190613cef565b6001600160a01b031614611d8e57600080fd5b5080611d99816147c8565b915050611cbe565b50611407826127d9565b6005546001600160a01b0316336001600160a01b031614611e025760405162461bcd60e51b815260206004820152601160248201527024a1a82220a79d102727aa1027aba722a960791b6044820152606401610817565b6001600160a01b038116611e585760405162461bcd60e51b815260206004820152601960248201527f49435044414f3a204e4557204f574e455220494e56414c4944000000000000006044820152606401610817565b600580546001600160a01b0319166001600160a01b0383169081179091556040519081527fcfaaa26691e16e66e73290fc725eee1a6b4e0e693a1640484937aac25ffb55a49060200161098d565b60006107836006836129c4565b91040290565b81518354602084015160408501516060860151608087015160a088015160c08901516001600160801b0390971671ffffffffffffffffffffffffffffffffffff1990961695909517600160801b61ffff95861602177fffffffffffffffffffff00000000ffffffffffffffffffffffffffffffffffff16600160901b938516939093027fffffffffffffffffffff0000ffffffffffffffffffffffffffffffffffffffff1692909217600160a01b91841691909102177fffffffffffff00000000ffffffffffffffffffffffffffffffffffffffffffff16600160b01b918316919091027fffffffffffff0000ffffffffffffffffffffffffffffffffffffffffffffffff1617600160c01b92821692909202919091177fffffffff0000ffffffffffffffffffffffffffffffffffffffffffffffffffff16600160d01b919092160217835561200c6201518082614562565b61201990620151806146ea565b600184015550506000600290910155565b6001600160a01b03831661208c5760405162461bcd60e51b8152602060048201526024808201527f45524332303a20617070726f76652066726f6d20746865207a65726f206164646044820152637265737360e01b6064820152608401610817565b6001600160a01b0382166120ed5760405162461bcd60e51b815260206004820152602260248201527f45524332303a20617070726f766520746f20746865207a65726f206164647265604482015261737360f01b6064820152608401610817565b6001600160a01b0383811660008181526001602090815260408083209487168084529482529182902085905590518481527f8c5be1e5ebec7d5bd14f71427d1e84f3dd0314c0f7b2291e5b200ac8c7c3b925910160405180910390a3505050565b6001600160a01b0383166121b25760405162461bcd60e51b815260206004820152602560248201527f45524332303a207472616e736665722066726f6d20746865207a65726f206164604482015264647265737360d81b6064820152608401610817565b6001600160a01b0382166122145760405162461bcd60e51b815260206004820152602360248201527f45524332303a207472616e7366657220746f20746865207a65726f206164647260448201526265737360e81b6064820152608401610817565b6001600160a01b0383166000908152602081905260409020548181101561228c5760405162461bcd60e51b815260206004820152602660248201527f45524332303a207472616e7366657220616d6f756e7420657863656564732062604482015265616c616e636560d01b6064820152608401610817565b6001600160a01b038085166000908152602081905260408082208585039055918516815290812080548492906122c3908490614510565b92505081905550826001600160a01b0316846001600160a01b03167fddf252ad1be2c89b69c2b068fc378daa952ba7f163c4a11628f55a4df523b3ef8460405161230f91815260200190565b60405180910390a35b50505050565b6000610833836001600160a01b038416612dc3565b8015806123bc5750604051636eb1769f60e11b81523060048201526001600160a01b03838116602483015284169063dd62ed3e9060440160206040518083038186803b15801561238257600080fd5b505afa158015612396573d6000803e3d6000fd5b505050506040513d601f19601f820116820180604052508101906123ba919061401a565b155b61242e5760405162461bcd60e51b815260206004820152603660248201527f5361666545524332303a20617070726f76652066726f6d206e6f6e2d7a65726f60448201527f20746f206e6f6e2d7a65726f20616c6c6f77616e6365000000000000000000006064820152608401610817565b6040516001600160a01b0383166024820152604481018290526124a990849063095ea7b360e01b906064015b60408051601f198184030181529190526020810180516001600160e01b03167fffffffff0000000000000000000000000000000000000000000000000000000090931692909217909152612e12565b505050565b6040516001600160a01b03808516602483015283166044820152606481018290526123189085906323b872dd60e01b9060840161245a565b6000806000806000806124fd8e8e8e8e8e8e612666565b905080600001519450806020015193508e6001600160a01b03166313ead562826000015183602001518e8c6040518563ffffffff1660e01b815260040161257294939291906001600160a01b039485168152928416602084015262ffffff919091166040830152909116606082015260800190565b602060405180830381600087803b15801561258c57600080fd5b505af11580156125a0573d6000803e3d6000fd5b505050506040513d601f19601f820116820180604052508101906125c49190613cef565b95508e6001600160a01b0316638831645688836040518363ffffffff1660e01b81526004016125f391906143b1565b6080604051808303818588803b15801561260c57600080fd5b505af1158015612620573d6000803e3d6000fd5b50505050506040513d601f19601f8201168201806040525081019061264591906140f6565b90919250909150809350819450505050995099509950995099945050505050565b6040805161016081018252600080825260208201819052918101829052606081018290526080810182905260a0810182905260c0810182905260e08101829052610100810182905261012081018290526101408101829052908080806001600160a01b038a163011156126e35750889250309150879050896126ef565b50309250889150899050875b6000600a6126fe8460096146ea565b6127089190614562565b90506000600a6127198460096146ea565b6127239190614562565b9050600061273342610e10614510565b60408051610160810182526001600160a01b03998a16815297909816602088015262ffffff909b1696860196909652600298890b60608601529690970b608084015260a083019190915260c082015260e08101949094525050610100820152306101208201526101408101919091529392505050565b6040516001600160a01b0383166024820152604481018290526124a990849063a9059cbb60e01b9060640161245a565b60008060008060005b85518110156128775761284886828151811061280e57634e487b7160e01b600052603260045260246000fd5b6020908102919091010151600c54600d5473c36442b4a4522e871399cd717abdd847ab11fe8892916001600160a01b039081169116612ee4565b90935091506128578386614510565b94506128638285614510565b93508061286f816147c8565b9150506127e2565b5083156128ed57600061288b606486614562565b905060006128998287614750565b600c549091506128d3906001600160a01b03167f0000000000000000000000000000000000000000000000000000000000000000836127a9565b6128ea33600c546001600160a01b031690846127a9565b50505b8215612962576000612900606485614562565b9050600061290e8286614750565b600d54909150612948906001600160a01b03167f0000000000000000000000000000000000000000000000000000000000000000836127a9565b61295f33600d546001600160a01b031690846127a9565b50505b336001600160a01b03167fd82360ec26aacb934381d978fccf02e426084b1f322819337105d62572b4d1cb86868660405161299f93929190614331565b60405180910390a25050505050565b6000610783825490565b600061083383836132a2565b6001600160a01b03811660009081526001830160205260408120541515610833565b8154600283015460009161ffff600160d01b82048116926001600160801b03831692600160801b8104831692600160901b8204811692600160a01b8304821692600160b01b8104831692600160c01b90910416908890612a47906001614510565b90506000620151808c60010154620151808d612a639190614562565b612a7090620151806146ea565b612a7a9190614750565b612a849190614562565b8c60020154612a939190614510565b905060008080845b848111612b85576000612aaf8a838b6132da565b9050828482141580612ac057508783145b15612b5857612acf8983614510565b9050612adb818d6145b9565b8e828f612ae891906145b9565b612af291906146ea565b612b019064e8d4a510006146ea565b612b0b9190614562565b9050612b1c8f64e8d4a510006146ea565b612b269082614510565b9050809350819450612b586040518060400160405280600981526020016863616c63756c61746560b81b815250613452565b612b628187614510565b9550612b7083868689613498565b50508080612b7d906147c8565b915050612a9b565b5060018f018e905560028f01849055612ba364e8d4a5100084614562565b9f9e505050505050505050505050505050565b6001600160a01b038216612c0c5760405162461bcd60e51b815260206004820152601f60248201527f45524332303a206d696e7420746f20746865207a65726f2061646472657373006044820152606401610817565b8060026000828254612c1e9190614510565b90915550506001600160a01b03821660009081526020819052604081208054839290612c4b908490614510565b90915550506040518181526001600160a01b038316906000907fddf252ad1be2c89b69c2b068fc378daa952ba7f163c4a11628f55a4df523b3ef9060200160405180910390a35050565b600080600080600080612ca78a6134ed565b93509350935093508160020b8860020b1215612cc257600080fd5b8060020b8760020b1315612cd557600080fd5b6000612ce68a866000878d8d612666565b9050846001600160a01b031681600001516001600160a01b03161415612d1257600060e0820152612d1b565b60006101008201525b604051634418b22b60e11b81526001600160a01b038d1690638831645690612d479084906004016143b1565b608060405180830381600087803b158015612d6157600080fd5b505af1158015612d75573d6000803e3d6000fd5b505050506040513d601f19601f82011682018060405250810190612d9991906140f6565b909f909e509c50505050505050505050505050565b6000610833836001600160a01b03841661380b565b6000818152600183016020526040812054612e0a57508154600181810184556000848152602080822090930184905584548482528286019093526040902091909155610783565b506000610783565b6000612e67826040518060400160405280602081526020017f5361666545524332303a206c6f772d6c6576656c2063616c6c206661696c6564815250856001600160a01b03166139289092919063ffffffff16565b8051909150156124a95780806020019051810190612e859190613f37565b6124a95760405162461bcd60e51b815260206004820152602a60248201527f5361666545524332303a204552433230206f7065726174696f6e20646964206e6044820152691bdd081cdd58d8d9595960b21b6064820152608401610817565b600080600080876001600160a01b03166399fbab88886040518263ffffffff1660e01b8152600401612f1891815260200190565b6101806040518083038186803b158015612f3157600080fd5b505afa158015612f45573d6000803e3d6000fd5b505050506040513d601f19601f82011682018060405250810190612f699190614154565b5050505050505050935093505050816001600160a01b0316866001600160a01b0316141580612faa5750806001600160a01b0316856001600160a01b031614155b15612fbc576000935060009250613297565b6040805160808101825288815230602082018190526001600160801b03828401819052606083015291516370a0823160e01b81526004810192909252906000906001600160a01b038516906370a082319060240160206040518083038186803b15801561302857600080fd5b505afa15801561303c573d6000803e3d6000fd5b505050506040513d601f19601f82011682018060405250810190613060919061401a565b6040516370a0823160e01b81523060048201529091506000906001600160a01b038516906370a082319060240160206040518083038186803b1580156130a557600080fd5b505afa1580156130b9573d6000803e3d6000fd5b505050506040513d601f19601f820116820180604052508101906130dd919061401a565b6040805163fc6f786560e01b81528551600482015260208601516001600160a01b039081166024830152918601516001600160801b03908116604483015260608701511660648201529192508c169063fc6f7865906084016040805180830381600087803b15801561314e57600080fd5b505af1158015613162573d6000803e3d6000fd5b505050506040513d601f19601f820116820180604052508101906131869190614131565b50506040516370a0823160e01b815230600482015282906001600160a01b038716906370a082319060240160206040518083038186803b1580156131c957600080fd5b505afa1580156131dd573d6000803e3d6000fd5b505050506040513d601f19601f82011682018060405250810190613201919061401a565b61320b9190614750565b6040516370a0823160e01b815230600482015290975081906001600160a01b038616906370a082319060240160206040518083038186803b15801561324f57600080fd5b505afa158015613263573d6000803e3d6000fd5b505050506040513d601f19601f82011682018060405250810190613287919061401a565b6132919190614750565b95505050505b505094509492505050565b60008260000182815481106132c757634e487b7160e01b600052603260045260246000fd5b9060005260206000200154905092915050565b600080806000198587098587029250828110838203039150508060001415613314576000841161330957600080fd5b508290049050610833565b80841161332057600080fd5b60008486880980840393811190920391905060008561333f8183614750565b1695869004959384900493600081900304600101905061335f81846146ea565b9093179260006133708760036146ea565b600218905061337f81886146ea565b61338a906002614750565b61339490826146ea565b90506133a081886146ea565b6133ab906002614750565b6133b590826146ea565b90506133c181886146ea565b6133cc906002614750565b6133d690826146ea565b90506133e281886146ea565b6133ed906002614750565b6133f790826146ea565b905061340381886146ea565b61340e906002614750565b61341890826146ea565b905061342481886146ea565b61342f906002614750565b61343990826146ea565b905061344581866146ea565b9998505050505050505050565b61349581604051602401613466919061437e565b60408051601f198184030181529190526020810180516001600160e01b031663104c13eb60e21b17905261393f565b50565b604051602481018590526044810184905260648101839052608481018290526123189060a40160408051601f198184030181529190526020810180516001600160e01b0316632e50569f60e11b17905261393f565b60008060008060008590506000816001600160a01b0316633850c7bd6040518163ffffffff1660e01b815260040160e06040518083038186803b15801561353357600080fd5b505afa158015613547573d6000803e3d6000fd5b505050506040513d601f19601f8201168201806040525081019061356b9190613f6d565b5050505050915050816001600160a01b031663ddca3f436040518163ffffffff1660e01b815260040160206040518083038186803b1580156135ac57600080fd5b505afa1580156135c0573d6000803e3d6000fd5b505050506040513d601f19601f820116820180604052508101906135e49190613ffe565b94506000826001600160a01b031663d0c93a7c6040518163ffffffff1660e01b815260040160206040518083038186803b15801561362157600080fd5b505afa158015613635573d6000803e3d6000fd5b505050506040513d601f19601f820116820180604052508101906136599190613f51565b9050826001600160a01b0316630dfe16816040518163ffffffff1660e01b815260040160206040518083038186803b15801561369457600080fd5b505afa1580156136a8573d6000803e3d6000fd5b505050506040513d601f19601f820116820180604052508101906136cc9190613cef565b6001600160a01b0316306001600160a01b03161415613775576136f0828783613960565b94506136fb866139aa565b9350826001600160a01b031663d21220a76040518163ffffffff1660e01b815260040160206040518083038186803b15801561373657600080fd5b505afa15801561374a573d6000803e3d6000fd5b505050506040513d601f19601f8201168201806040525081019061376e9190613cef565b9650613801565b61377e86613a05565b945061378b828783613a55565b9350826001600160a01b0316630dfe16816040518163ffffffff1660e01b815260040160206040518083038186803b1580156137c657600080fd5b505afa1580156137da573d6000803e3d6000fd5b505050506040513d601f19601f820116820180604052508101906137fe9190613cef565b96505b5050509193509193565b6000818152600183016020526040812054801561391e57600061382f600183614750565b855490915060009061384390600190614750565b90508181146138c457600086600001828154811061387157634e487b7160e01b600052603260045260246000fd5b90600052602060002001549050808760000184815481106138a257634e487b7160e01b600052603260045260246000fd5b6000918252602080832090910192909255918252600188019052604090208390555b85548690806138e357634e487b7160e01b600052603160045260246000fd5b600190038181906000526020600020016000905590558560010160008681526020019081526020016000206000905560019350505050610783565b6000915050610783565b60606139378484600085613a95565b949350505050565b80516a636f6e736f6c652e6c6f67602083016000808483855afa5050505050565b600080828561396e866139aa565b6139789190614709565b6139829190614528565b905061398e8184614661565b613997856139aa565b6139a19190614709565b95945050505050565b60008162ffffff166101f414156139c857610783620d89e5196147e3565b8162ffffff16610bb814156139e457610783620d89b3196147e3565b8162ffffff166127101415613a0057610783620d899f196147e3565b919050565b60008162ffffff166101f41415613a215750620d89e519919050565b8162ffffff16610bb81415613a3b5750620d89b319919050565b8162ffffff166127101415613a005750620d899f19919050565b60008082613a6285613a05565b613a6c9087614709565b613a769190614528565b9050613a828184614661565b613a8b85613a05565b6139a191906144ca565b606082471015613af65760405162461bcd60e51b815260206004820152602660248201527f416464726573733a20696e73756666696369656e742062616c616e636520666f6044820152651c8818d85b1b60d21b6064820152608401610817565b843b613b445760405162461bcd60e51b815260206004820152601d60248201527f416464726573733a2063616c6c20746f206e6f6e2d636f6e74726163740000006044820152606401610817565b600080866001600160a01b03168587604051613b609190614276565b60006040518083038185875af1925050503d8060008114613b9d576040519150601f19603f3d011682016040523d82523d6000602084013e613ba2565b606091505b5091509150613bb2828286613bbd565b979650505050505050565b60608315613bcc575081610833565b825115613bdc5782518084602001fd5b8160405162461bcd60e51b8152600401610817919061437e565b8051613a0081614846565b600082601f830112613c11578081fd5b81356020613c26613c21836144a6565b614475565b80838252828201915082860187848660051b8901011115613c45578586fd5b855b85811015613c6c578135613c5a8161486a565b84529284019290840190600101613c47565b5090979650505050505050565b80518015158114613a0057600080fd5b8035613a008161485b565b8051613a008161485b565b80516001600160801b0381168114613a0057600080fd5b805161ffff81168114613a0057600080fd5b8051613a008161486a565b600060208284031215613ce4578081fd5b813561083381614846565b600060208284031215613d00578081fd5b815161083381614846565b60008060408385031215613d1d578081fd5b8235613d2881614846565b91506020830135613d3881614846565b809150509250929050565b600080600060608486031215613d57578081fd5b8335613d6281614846565b92506020840135613d7281614846565b929592945050506040919091013590565b60008060408385031215613d95578081fd5b8235613da081614846565b946020939093013593505050565b60008060008060008060c08789031215613dc6578384fd5b863567ffffffffffffffff80821115613ddd578586fd5b818901915089601f830112613df0578586fd5b81356020613e00613c21836144a6565b8083825282820191508286018e848660051b8901011115613e1f578a8bfd5b8a96505b84871015613e4a578035613e3681614846565b835260019690960195918301918301613e23565b509a50508a013592505080821115613e60578586fd5b50613e6d89828a01613c01565b9550506040870135935060608701359250613e8a60808801613c89565b9150613e9860a08801613c89565b90509295509295509295565b60006020808385031215613eb6578182fd5b823567ffffffffffffffff811115613ecc578283fd5b8301601f81018513613edc578283fd5b8035613eea613c21826144a6565b80828252848201915084840188868560051b8701011115613f09578687fd5b8694505b83851015613f2b578035835260019490940193918501918501613f0d565b50979650505050505050565b600060208284031215613f48578081fd5b61083382613c79565b600060208284031215613f62578081fd5b81516108338161485b565b600080600080600080600060e0888a031215613f87578485fd5b8751613f9281614846565b6020890151909750613fa38161485b565b9550613fb160408901613cb6565b9450613fbf60608901613cb6565b9350613fcd60808901613cb6565b925060a088015160ff81168114613fe2578182fd5b9150613ff060c08901613c79565b905092959891949750929550565b60006020828403121561400f578081fd5b81516108338161486a565b60006020828403121561402b578081fd5b5051919050565b600080600080600080600060e0888a03121561404c578081fd5b87359650602088013561405e81614846565b95506040880135945060608801356140758161486a565b935060808801356140858161485b565b925060a08801356140958161485b565b915060c08801356140a581614846565b8091505092959891949750929550565b6000806000606084860312156140c9578081fd5b8335925060208401356140db8161485b565b915060408401356140eb8161485b565b809150509250925092565b6000806000806080858703121561410b578182fd5b8451935061411b60208601613c9f565b6040860151606090960151949790965092505050565b60008060408385031215614143578182fd5b505080516020909101519092909150565b6000806000806000806000806000806000806101808d8f031215614176578586fd5b8c516bffffffffffffffffffffffff81168114614191578687fd5b9b5061419f60208e01613bf6565b9a506141ad60408e01613bf6565b99506141bb60608e01613bf6565b98506141c960808e01613cc8565b97506141d760a08e01613c94565b96506141e560c08e01613c94565b95506141f360e08e01613c9f565b94506101008d015193506101208d015192506142126101408e01613c9f565b91506142216101608e01613c9f565b90509295989b509295989b509295989b565b6000815180845260208085019450808401835b8381101561426b5781516001600160a01b031687529582019590820190600101614246565b509495945050505050565b60008251614288818460208701614767565b9190910192915050565b6020815260006108336020830184614233565b60e0815260006142b860e083018a614233565b82810360208481019190915289518083528a820192820190845b818110156142f357845162ffffff16835293830193918301916001016142d2565b50508093505050508660408301528560608301528460020b608083015261431f60a083018560020b9052565b8260c083015298975050505050505050565b606080825284519082018190526000906020906080840190828801845b8281101561436a5781518452928401929084019060010161434e565b505050908301949094525060400152919050565b602081526000825180602084015261439d816040850160208701614767565b601f01601f19169190910160400192915050565b81516001600160a01b03168152610160810160208301516143dd60208401826001600160a01b03169052565b5060408301516143f4604084018262ffffff169052565b506060830151614409606084018260020b9052565b50608083015161441e608084018260020b9052565b5060a083015160a083015260c083015160c083015260e083015160e083015261010080840151818401525061012080840151614464828501826001600160a01b03169052565b505061014092830151919092015290565b604051601f8201601f1916810167ffffffffffffffff8111828210171561449e5761449e614830565b604052919050565b600067ffffffffffffffff8211156144c0576144c0614830565b5060051b60200190565b60008160020b8360020b82821282627fffff038213811516156144ef576144ef614804565b82627fffff1903821281161561450757614507614804565b50019392505050565b6000821982111561452357614523614804565b500190565b60008160020b8360020b8061453f5761453f61481a565b627fffff1982146000198214161561455957614559614804565b90059392505050565b6000826145715761457161481a565b500490565b600181815b808511156145b157816000190482111561459757614597614804565b808516156145a457918102915b93841c939080029061457b565b509250929050565b600061083383836000826145cf57506001610783565b816145dc57506000610783565b81600181146145f257600281146145fc57614618565b6001915050610783565b60ff84111561460d5761460d614804565b50506001821b610783565b5060208310610133831016604e8410600b841016171561463b575081810a610783565b6146458383614576565b806000190482111561465957614659614804565b029392505050565b60008160020b8360020b627fffff8382138484138383048511828216161561468b5761468b614804565b627fffff19868512828116878305871216156146a9576146a9614804565b8787129250858205871284841616156146c4576146c4614804565b858505871281841616156146da576146da614804565b5050509290910295945050505050565b600081600019048311821515161561470457614704614804565b500290565b60008160020b8360020b82811281627fffff190183128115161561472f5761472f614804565b81627fffff01831381161561474657614746614804565b5090039392505050565b60008282101561476257614762614804565b500390565b60005b8381101561478257818101518382015260200161476a565b838111156123185750506000910152565b600181811c908216806147a757607f821691505b602082108114156114d457634e487b7160e01b600052602260045260246000fd5b60006000198214156147dc576147dc614804565b5060010190565b60008160020b627fffff198114156147fd576147fd614804565b9003919050565b634e487b7160e01b600052601160045260246000fd5b634e487b7160e01b600052601260045260246000fd5b634e487b7160e01b600052604160045260246000fd5b6001600160a01b038116811461349557600080fd5b8060020b811461349557600080fd5b62ffffff8116811461349557600080fdfea2646970667358221220f2aa503f6e56b75c350555bad8472610e1f336eaf1ef82e7832d24d6a08218de64736f6c63430008040033a2646970667358221220f25115b25a41feb39df61afbf6994a5c2c5ee13fc42aa7f25a69c0fd631ea61b64736f6c63430008040033",
  "devdoc": {
    "kind": "dev",
    "methods": {},
    "stateVariables": {
      "tokens": {
        "params": {
          "_daoID": "A unique ID provided by the ICPDAO."
        },
        "return": "DAOToken address.",
        "returns": {
          "_0": "DAOToken address."
        }
      }
    },
    "version": 1
  },
  "userdoc": {
    "kind": "user",
    "methods": {
      "tokens(string)": {
        "notice": "Get DAOToken address by daoID."
      }
    },
    "version": 1
  },
  "storageLayout": {
    "storage": [
      {
        "astId": 2435,
        "contract": "contracts/DAOFactory.sol:DAOFactory",
        "label": "_owner",
        "offset": 0,
        "slot": "0",
        "type": "t_address_payable"
      },
      {
        "astId": 2440,
        "contract": "contracts/DAOFactory.sol:DAOFactory",
        "label": "tokens",
        "offset": 0,
        "slot": "1",
        "type": "t_mapping(t_string_memory_ptr,t_address)"
      }
    ],
    "types": {
      "t_address": {
        "encoding": "inplace",
        "label": "address",
        "numberOfBytes": "20"
      },
      "t_address_payable": {
        "encoding": "inplace",
        "label": "address payable",
        "numberOfBytes": "20"
      },
      "t_mapping(t_string_memory_ptr,t_address)": {
        "encoding": "mapping",
        "key": "t_string_memory_ptr",
        "label": "mapping(string => address)",
        "numberOfBytes": "32",
        "value": "t_address"
      },
      "t_string_memory_ptr": {
        "encoding": "bytes",
        "label": "string",
        "numberOfBytes": "32"
      }
    }
  }
}