{
  "address": "0xfaA04c4318b96593bdD87b768Cc7bbF78b41b7fa",
  "abi": [
    {
      "inputs": [
        {
          "internalType": "address payable",
          "name": "owner_",
          "type": "address"
        }
      ],
      "stateMutability": "nonpayable",
      "type": "constructor"
    },
    {
      "anonymous": false,
      "inputs": [
        {
          "indexed": true,
          "internalType": "address",
          "name": "user",
          "type": "address"
        },
        {
          "indexed": false,
          "internalType": "address[]",
          "name": "tokenList",
          "type": "address[]"
        }
      ],
      "name": "AddTokenList",
      "type": "event"
    },
    {
      "anonymous": false,
      "inputs": [
        {
          "indexed": true,
          "internalType": "address",
          "name": "token",
          "type": "address"
        },
        {
          "indexed": false,
          "internalType": "address",
          "name": "user",
          "type": "address"
        },
        {
          "indexed": false,
          "internalType": "uint256",
          "name": "reward",
          "type": "uint256"
        }
      ],
      "name": "Bonus",
      "type": "event"
    },
    {
      "anonymous": false,
      "inputs": [
        {
          "indexed": true,
          "internalType": "address",
          "name": "user",
          "type": "address"
        },
        {
          "indexed": false,
          "internalType": "uint256",
          "name": "amount",
          "type": "uint256"
        }
      ],
      "name": "Deposit",
      "type": "event"
    },
    {
      "anonymous": false,
      "inputs": [
        {
          "indexed": true,
          "internalType": "address",
          "name": "user",
          "type": "address"
        },
        {
          "indexed": false,
          "internalType": "address[]",
          "name": "tokenList",
          "type": "address[]"
        }
      ],
      "name": "RemoveTokenList",
      "type": "event"
    },
    {
      "anonymous": false,
      "inputs": [
        {
          "indexed": false,
          "internalType": "address",
          "name": "_newOwner",
          "type": "address"
        }
      ],
      "name": "TransferOwnership",
      "type": "event"
    },
    {
      "anonymous": false,
      "inputs": [
        {
          "indexed": true,
          "internalType": "address",
          "name": "token",
          "type": "address"
        },
        {
          "indexed": false,
          "internalType": "uint256",
          "name": "amount",
          "type": "uint256"
        },
        {
          "indexed": false,
          "internalType": "uint256",
          "name": "accPerShare",
          "type": "uint256"
        },
        {
          "indexed": false,
          "internalType": "uint256",
          "name": "lastRewardBlock",
          "type": "uint256"
        }
      ],
      "name": "UpdateBonus",
      "type": "event"
    },
    {
      "anonymous": false,
      "inputs": [
        {
          "indexed": true,
          "internalType": "address",
          "name": "user",
          "type": "address"
        },
        {
          "indexed": false,
          "internalType": "uint256",
          "name": "amount",
          "type": "uint256"
        }
      ],
      "name": "Withdraw",
      "type": "event"
    },
    {
      "inputs": [],
      "name": "ICPD",
      "outputs": [
        {
          "internalType": "address",
          "name": "",
          "type": "address"
        }
      ],
      "stateMutability": "view",
      "type": "function"
    },
    {
      "inputs": [
        {
          "internalType": "address[]",
          "name": "_addTokenList",
          "type": "address[]"
        }
      ],
      "name": "addTokenList",
      "outputs": [],
      "stateMutability": "nonpayable",
      "type": "function"
    },
    {
      "inputs": [
        {
          "internalType": "address",
          "name": "user",
          "type": "address"
        }
      ],
      "name": "bonus",
      "outputs": [
        {
          "internalType": "address[]",
          "name": "tokens",
          "type": "address[]"
        },
        {
          "internalType": "uint256[]",
          "name": "amounts",
          "type": "uint256[]"
        }
      ],
      "stateMutability": "view",
      "type": "function"
    },
    {
      "inputs": [
        {
          "internalType": "address[]",
          "name": "_token_list",
          "type": "address[]"
        }
      ],
      "name": "bonusWithdraw",
      "outputs": [],
      "stateMutability": "nonpayable",
      "type": "function"
    },
    {
      "inputs": [
        {
          "internalType": "uint256",
          "name": "_amount",
          "type": "uint256"
        },
        {
          "internalType": "address[]",
          "name": "_addTokenList",
          "type": "address[]"
        }
      ],
      "name": "deposit",
      "outputs": [],
      "stateMutability": "nonpayable",
      "type": "function"
    },
    {
      "inputs": [],
      "name": "destruct",
      "outputs": [],
      "stateMutability": "nonpayable",
      "type": "function"
    },
    {
      "inputs": [],
      "name": "owner",
      "outputs": [
        {
          "internalType": "address",
          "name": "result",
          "type": "address"
        }
      ],
      "stateMutability": "view",
      "type": "function"
    },
    {
      "inputs": [
        {
          "internalType": "address",
          "name": "_token",
          "type": "address"
        }
      ],
      "name": "poolInfo",
      "outputs": [
        {
          "internalType": "uint256",
          "name": "accPerShare",
          "type": "uint256"
        },
        {
          "internalType": "uint256",
          "name": "userStakingIcpdAmount",
          "type": "uint256"
        },
        {
          "internalType": "uint256",
          "name": "blanceHaveMintAmount",
          "type": "uint256"
        }
      ],
      "stateMutability": "view",
      "type": "function"
    },
    {
      "inputs": [
        {
          "internalType": "address[]",
          "name": "_removeTokenList",
          "type": "address[]"
        }
      ],
      "name": "removeTokenList",
      "outputs": [],
      "stateMutability": "nonpayable",
      "type": "function"
    },
    {
      "inputs": [
        {
          "internalType": "address",
          "name": "_ICPD",
          "type": "address"
        }
      ],
      "name": "setICPToken",
      "outputs": [],
      "stateMutability": "nonpayable",
      "type": "function"
    },
    {
      "inputs": [
        {
          "internalType": "address",
          "name": "user",
          "type": "address"
        }
      ],
      "name": "tokenList",
      "outputs": [
        {
          "internalType": "address[]",
          "name": "",
          "type": "address[]"
        }
      ],
      "stateMutability": "view",
      "type": "function"
    },
    {
      "inputs": [],
      "name": "totalStaking",
      "outputs": [
        {
          "internalType": "uint256",
          "name": "",
          "type": "uint256"
        }
      ],
      "stateMutability": "view",
      "type": "function"
    },
    {
      "inputs": [
        {
          "internalType": "address payable",
          "name": "newOwner",
          "type": "address"
        }
      ],
      "name": "transferOwnership",
      "outputs": [],
      "stateMutability": "nonpayable",
      "type": "function"
    },
    {
      "inputs": [
        {
          "internalType": "address",
          "name": "_user",
          "type": "address"
        }
      ],
      "name": "userInfo",
      "outputs": [
        {
          "internalType": "uint256",
          "name": "amount",
          "type": "uint256"
        },
        {
          "internalType": "address[]",
          "name": "tokens",
          "type": "address[]"
        }
      ],
      "stateMutability": "view",
      "type": "function"
    },
    {
      "inputs": [
        {
          "internalType": "address",
          "name": "_user",
          "type": "address"
        },
        {
          "internalType": "address",
          "name": "_token",
          "type": "address"
        }
      ],
      "name": "userRewardDebt",
      "outputs": [
        {
          "internalType": "uint256",
          "name": "rewardDebt",
          "type": "uint256"
        }
      ],
      "stateMutability": "view",
      "type": "function"
    },
    {
      "inputs": [
        {
          "internalType": "uint256",
          "name": "_amount",
          "type": "uint256"
        }
      ],
      "name": "withdraw",
      "outputs": [],
      "stateMutability": "nonpayable",
      "type": "function"
    }
  ],
  "transactionHash": "0xd669368cf83c5cfa5540098e30154488b865197c91efc4b25004eaeea0daf83f",
  "args": [
    "0x3946d96a4b46657ca95CBE85d8a60b822186Ad1f"
  ],
  "solcInputHash": "0a3195244c9f46a3a143aa4e5abb5659",
  "bytecode": "0x60806040523480156200001157600080fd5b5060405162002cc438038062002cc483398101604081905262000034916200005a565b600080546001600160a01b0319166001600160a01b03929092169190911790556200008a565b6000602082840312156200006c578081fd5b81516001600160a01b038116811462000083578182fd5b9392505050565b612c2a806200009a6000396000f3fe608060405234801561001057600080fd5b50600436106101005760003560e01c806373b65b8911610097578063b44b58f111610066578063b44b58f11461027e578063d8cb4aa314610291578063e1e1f750146102b2578063f2fde38b146102c557600080fd5b806373b65b89146101e257806385d7cf86146101f55780638da5cb5b146102085780639a7b5f111461022d57600080fd5b80631d030ac9116100d35780631d030ac91461016a5780632b68b9c6146101a75780632e1a7d4d146101af57806364e9f35f146101c257600080fd5b8063165defa41461010557806316c15c751461012157806317259338146101365780631959a00214610149575b600080fd5b61010e60025481565b6040519081526020015b60405180910390f35b61013461012f366004612641565b6102d8565b005b610134610144366004612681565b61052c565b61015c6101573660046125ed565b6106ce565b604051610118929190612a46565b61010e610178366004612609565b6001600160a01b0391821660009081526003602090815260408083209390941682526001909201909152205490565b610134610767565b6101346101bd3660046127d2565b6107db565b6101d56101d03660046125ed565b6109be565b6040516101189190612925565b6101346101f03660046125ed565b6109cf565b610134610203366004612802565b610b07565b6000546001600160a01b03165b6040516001600160a01b039091168152602001610118565b61026361023b3660046125ed565b6001600160a01b03166000908152600460205260409020805460018201546002909201549092565b60408051938452602084019290925290820152606001610118565b61013461028c366004612641565b610f49565b6102a461029f3660046125ed565b611143565b604051610118929190612938565b600154610215906001600160a01b031681565b6101346102d33660046125ed565b61156d565b8061032a5760405162461bcd60e51b815260206004820152601d60248201527f5f616464546f6b656e4c6973742063616e6e6f7420626520656d70747900000060448201526064015b60405180910390fd5b33600090815260036020526040902054806103875760405162461bcd60e51b815260206004820181905260248201527f616464546f6b656e4c697374206e6565642075736572416d6f756e74203e20306044820152606401610321565b336000908152600360205260408120600201905b8381101561046c5760008585838181106103c557634e487b7160e01b600052603260045260246000fd5b90506020020160208101906103da91906125ed565b90506103e6838261163b565b156104595760405162461bcd60e51b815260206004820152603660248201527f49435044414f3a205f616464546f6b656e4c697374204841564520544f4b454e60448201527f20434f4e5441494e53206f6c64546f6b656e4c697374000000000000000000006064820152608401610321565b508061046481612b4e565b91505061039b565b5060005b838110156104e257600085858381811061049a57634e487b7160e01b600052603260045260246000fd5b90506020020160208101906104af91906125ed565b90506104ba81611660565b6104c381611840565b6104cd8382611946565b505080806104da90612b4e565b915050610470565b50336001600160a01b03167f3d32594c5102d51489860224033bd45051204343ebb92530eae03f013f3cd31d858560405161051e9291906128d7565b60405180910390a250505050565b33600090815260036020526040902054806105895760405162461bcd60e51b815260206004820152601960248201527f49435044414f3a20594f55204e4f2048415645205354414b45000000000000006044820152606401610321565b336000908152600360205260408120600201905b835181101561066a5760008482815181106105c857634e487b7160e01b600052603260045260246000fd5b602002602001015190506105e5818461163b90919063ffffffff16565b6106575760405162461bcd60e51b815260206004820152602760248201527f49435044414f3a205f746f6b656e5f6c6973742048415645204e4f205354414b60448201527f4520544f4b454e000000000000000000000000000000000000000000000000006064820152608401610321565b508061066281612b4e565b91505061059d565b5060005b83518110156106c857600084828151811061069957634e487b7160e01b600052603260045260246000fd5b602002602001015190506106ac81611660565b6106b58161195b565b50806106c081612b4e565b91505061066e565b50505050565b6001600160a01b038116600081815260036020526040908190205490516364e9f35f60e01b815260048101929092529060609030906364e9f35f9060240160006040518083038186803b15801561072457600080fd5b505afa158015610738573d6000803e3d6000fd5b505050506040513d6000823e601f3d908101601f191682016040526107609190810190612722565b9050915091565b6000546001600160a01b031633146107cd5760405162461bcd60e51b8152602060048201526024808201527f49435044414f3a204f4e4c59204f574e45522043414e2043414c4c2044455354604482015263149550d560e21b6064820152608401610321565b6000546001600160a01b0316ff5b33600090815260036020526040902054808211156107f857600080fd5b3360009081526003602052604081206002019061081482611b3a565b67ffffffffffffffff81111561083a57634e487b7160e01b600052604160045260246000fd5b604051908082528060200260200182016040528015610863578160200160208202803683370190505b50905060005b61087283611b3a565b8110156108cd576108838382611b44565b8282815181106108a357634e487b7160e01b600052603260045260246000fd5b6001600160a01b0390921660209283029190910190910152806108c581612b4e565b915050610869565b5060005b81518110156109375760008282815181106108fc57634e487b7160e01b600052603260045260246000fd5b602002602001015190506109108187611b50565b84861415610924576109228482611b6c565b505b508061092f81612b4e565b9150506108d1565b503360009081526003602052604081208054869290610957908490612b0b565b9250508190555083600260008282546109709190612b0b565b909155505060015461098c906001600160a01b03163386611b81565b60405184815233907f884edad9ce6fa2440d8a54cc123490eb96d2768479d49ff9c7366125a94243649060200161051e565b60606109c982611bfc565b92915050565b6000546001600160a01b03163314610a295760405162461bcd60e51b815260206004820152601160248201527f49435044414f3a204e4f54204f574e45520000000000000000000000000000006044820152606401610321565b6001600160a01b038116610a7f5760405162461bcd60e51b815260206004820152601560248201527f49435044414f3a205f4943504420494e56414c494400000000000000000000006044820152606401610321565b6001546001600160a01b031615610ad85760405162461bcd60e51b815260206004820152601b60248201527f49435044414f3a204943504420414444524553532045584954535400000000006044820152606401610321565b6001805473ffffffffffffffffffffffffffffffffffffffff19166001600160a01b0392909216919091179055565b60008311610b575760405162461bcd60e51b815260206004820152601660248201527f49435044414f3a20414d4f554e54204953205a45524f000000000000000000006044820152606401610321565b33301415610ba75760405162461bcd60e51b815260206004820152601560248201527f49435044414f3a2053454e4445522049532044414f00000000000000000000006044820152606401610321565b6001546001600160a01b0316610bff5760405162461bcd60e51b815260206004820152601e60248201527f49435044414f3a20494350442043414e4e4f54206164647265737328302900006044820152606401610321565b336000908152600360205260408120600201905b82811015610ce4576000848483818110610c3d57634e487b7160e01b600052603260045260246000fd5b9050602002016020810190610c5291906125ed565b9050610c5e838261163b565b15610cd15760405162461bcd60e51b815260206004820152603660248201527f49435044414f3a205f616464546f6b656e4c697374204841564520544f4b454e60448201527f20434f4e5441494e53206f6c64546f6b656e4c697374000000000000000000006064820152608401610321565b5080610cdc81612b4e565b915050610c13565b506000610cf082611b3a565b1115610d3f5760005b610d0282611b3a565b811015610d3d57610d2b610d168383611b44565b33600090815260036020526040902054611b50565b80610d3581612b4e565b915050610cf9565b505b60005b82811015610d9f576000848483818110610d6c57634e487b7160e01b600052603260045260246000fd5b9050602002016020810190610d8191906125ed565b9050610d8c81611660565b5080610d9781612b4e565b915050610d42565b50600154610db8906001600160a01b0316333087611ce3565b3360009081526003602052604081208054869290610dd7908490612ab4565b925050819055508360026000828254610df09190612ab4565b9091555060009050610e0182611b3a565b1115610e465760005b610e1382611b3a565b811015610e44576000610e268383611b44565b9050610e3181611840565b5080610e3c81612b4e565b915050610e0a565b505b610e7c6040518060400160405280600c81526020016b1bdb19151bdad95b931a5cdd60a21b815250610e7783611b3a565b611d1b565b60005b82811015610f12576000848483818110610ea957634e487b7160e01b600052603260045260246000fd5b9050602002016020810190610ebe91906125ed565b9050610ec981611840565b6000610ed58483611946565b9050610efd6040518060400160405280600381526020016218591960ea1b8152508383611d60565b50508080610f0a90612b4e565b915050610e7f565b5060408051808201909152600c81526b1bdb19151bdad95b931a5cdd60a21b60208201526106c89083610f4484611b3a565b611da7565b80610f965760405162461bcd60e51b815260206004820181905260248201527f5f72656d6f7665546f6b656e4c6973742063616e6e6f7420626520656d7074796044820152606401610321565b336000908152600360205260408120600201905b8281101561107a576000848483818110610fd457634e487b7160e01b600052603260045260246000fd5b9050602002016020810190610fe991906125ed565b9050610ff5838261163b565b6110675760405162461bcd60e51b815260206004820152603d60248201527f49435044414f3a205f72656d6f7665546f6b656e4c697374204841564520544f60448201527f4b454e204e4f5420434f4e5441494e53206f6c64546f6b656e4c6973740000006064820152608401610321565b508061107281612b4e565b915050610faa565b5060005b828110156110fa5760008484838181106110a857634e487b7160e01b600052603260045260246000fd5b90506020020160208101906110bd91906125ed565b336000908152600360205260409020549091506110db908290611b50565b6110e58382611b6c565b505080806110f290612b4e565b91505061107e565b50336001600160a01b03167f7fcfae621b7a5967478b981b4cc5b034823a7196b4c60f86413928755980276184846040516111369291906128d7565b60405180910390a2505050565b6060806111856040518060400160405280600581526020017f626f6e757300000000000000000000000000000000000000000000000000000081525084611dee565b61118e83611bfc565b9150815167ffffffffffffffff8111156111b857634e487b7160e01b600052604160045260246000fd5b6040519080825280602002602001820160405280156111e1578160200160208202803683370190505b50905060005b825181101561156757600083828151811061121257634e487b7160e01b600052603260045260246000fd5b6020908102919091018101516001600160a01b03811660009081526004909252604082209092509061124383611e33565b8254909150811580159061125b575060008360010154115b156112d45760018301546000906112778464e8d4a51000612aec565b6112819190612acc565b8454909150611291908290612ab4565b91506112d26040518060400160405280601781526020017f6164644d6f636b416363546f6b656e506572536861726500000000000000000081525082611d1b565b505b6113176040518060400160405280601581526020017f706f6f6c2e616363546f6b656e506572536861726500000000000000000000008152508460000154611d1b565b6113566040518060400160405280601481526020017f6d6f636b416363546f6b656e506572536861726500000000000000000000000081525082611d1b565b6113956040518060400160405280600c81526020017f756e4d696e74416d6f756e74000000000000000000000000000000000000000081525083611d1b565b6113fc6040518060400160405280600681526020017f616d6f756e740000000000000000000000000000000000000000000000000000815250600360008b6001600160a01b03166001600160a01b0316815260200190815260200160002060000154611d1b565b604080518082018252600a81527f72657761726444656274000000000000000000000000000000000000000000006020808301919091526001600160a01b03808c166000908152600383528481209189168152600190910190915291909120546114669190611d1b565b6001600160a01b038089166000818152600360208181526040808420958a168452600186018252832054939092529052905464e8d4a51000906114aa908490612aec565b6114b49190612acc565b6114be9190612b0b565b8686815181106114de57634e487b7160e01b600052603260045260246000fd5b6020026020010181815250506115506040518060400160405280600681526020017f726573756c74000000000000000000000000000000000000000000000000000081525087878151811061154357634e487b7160e01b600052603260045260246000fd5b6020026020010151611d1b565b50505050808061155f90612b4e565b9150506111e7565b50915091565b6000546001600160a01b031633146115c75760405162461bcd60e51b815260206004820152601160248201527f49435044414f3a204e4f54204f574e45520000000000000000000000000000006044820152606401610321565b6001600160a01b0381166115da57600080fd5b6000805473ffffffffffffffffffffffffffffffffffffffff19166001600160a01b0383169081179091556040519081527fcfaaa26691e16e66e73290fc725eee1a6b4e0e693a1640484937aac25ffb55a49060200160405180910390a150565b6001600160a01b038116600090815260018301602052604081205415155b9392505050565b600061166b82611e33565b6001600160a01b03831660009081526004602052604090209091508115801590611699575060008160010154115b1561183b5760018101546000906116b58464e8d4a51000612aec565b6116bf9190612acc565b9050808260000160008282546116d59190612ab4565b9091555050600182015464e8d4a51000906116f09083612aec565b6116fa9190612acc565b82600201600082825461170d9190612ab4565b909155505060408051808201909152601d81527f5f6d696e7457697468546f6b656e20616464416363506572536861726500000060208201526117509082611d1b565b6117936040518060400160405280601f81526020017f5f6d696e7457697468546f6b656e20706f6f6c2e6163635065725368617265008152508360000154611d1b565b6117d66040518060400160405280601a81526020017f706f6f6c2e757365725374616b696e6749637064416d6f756e740000000000008152508360010154611d1b565b6118156040518060400160405280601b81526020017f5f6d696e7457697468546f6b656e20756e4d696e74416d6f756e74000000000081525084611d1b565b6106c8604051806060016040528060238152602001612bd2602391398360020154611d1b565b505050565b33600090815260036020526040902054806118c35760405162461bcd60e51b815260206004820152603060248201527f5f61646455736572537461636b416d6f756e7457697468546f6b656e206e656560448201527f642075736572416d6f756e74203e2030000000000000000000000000000000006064820152608401610321565b6001600160a01b0382166000908152600460205260408120600181018054919284926118f0908490612ab4565b9091555050805464e8d4a5100090611909908490612aec565b6119139190612acc565b3360009081526003602090815260408083206001600160a01b039790971683526001909601905293909320929092555050565b6000611659836001600160a01b038416611f84565b336000908152600360205260409020548015611b36576001600160a01b0382166000818152600460209081526040808320338452600383528184209484526001909401909152812054825464e8d4a51000906119b79086612aec565b6119c19190612acc565b6119cb9190612b0b565b905080156106c8576119de843383611b81565b8082600201546119ee9190612b0b565b60028301553360009081526003602090815260408083206001600160a01b038816845260010190915281208054839290611a29908490612ab4565b909155505060408051808201909152600781527f70656e64696e67000000000000000000000000000000000000000000000000006020820152611a6c9082611d1b565b611ab4604051806060016040528060248152602001612bae602491393360009081526003602090815260408083206001600160a01b038a168452600101909152902054611d1b565b611af36040518060400160405280600a81526020017f75736572416d6f756e740000000000000000000000000000000000000000000081525084611d1b565b6106c86040518060400160405280601081526020017f616363546f6b656e5065725368617265000000000000000000000000000000008152508360000154611d1b565b5050565b60006109c9825490565b60006116598383611fd3565b611b5982611660565b611b628261195b565b611b36828261200b565b6000611659836001600160a01b0384166121f1565b6040516001600160a01b03831660248201526044810182905261183b90849063a9059cbb60e01b906064015b60408051601f198184030181529190526020810180516001600160e01b03167fffffffff000000000000000000000000000000000000000000000000000000009093169290921790915261230e565b6001600160a01b0381166000908152600360205260409020606090600201611c2381611b3a565b67ffffffffffffffff811115611c4957634e487b7160e01b600052604160045260246000fd5b604051908082528060200260200182016040528015611c72578160200160208202803683370190505b50915060005b611c8182611b3a565b811015611cdc57611c928282611b44565b838281518110611cb257634e487b7160e01b600052603260045260246000fd5b6001600160a01b039092166020928302919091019091015280611cd481612b4e565b915050611c78565b5050919050565b6040516001600160a01b03808516602483015283166044820152606481018290526106c89085906323b872dd60e01b90608401611bad565b611b368282604051602401611d319291906129ff565b60408051601f198184030181529190526020810180516001600160e01b03166309710a9d60e41b1790526123f3565b61183b838383604051602401611d78939291906129cc565b60408051601f198184030181529190526020810180516001600160e01b031663324757b560e21b1790526123f3565b61183b838383604051602401611dbf93929190612a21565b60408051601f198184030181529190526020810180516001600160e01b031663969cdd0360e01b1790526123f3565b611b368282604051602401611e049291906129a1565b60408051601f198184030181529190526020810180516001600160e01b031663319af33360e01b1790526123f3565b6001600160a01b0380821660008181526004602052604081206001549193909291161415611ef55760028181015490546040516370a0823160e01b81523060048201526001600160a01b038616906370a082319060240160206040518083038186803b158015611ea257600080fd5b505afa158015611eb6573d6000803e3d6000fd5b505050506040513d601f19601f82011682018060405250810190611eda91906127ea565b611ee49190612b0b565b611eee9190612b0b565b9150611f7e565b60028101546040516370a0823160e01b81523060048201526001600160a01b038516906370a082319060240160206040518083038186803b158015611f3957600080fd5b505afa158015611f4d573d6000803e3d6000fd5b505050506040513d601f19601f82011682018060405250810190611f7191906127ea565b611f7b9190612b0b565b91505b50919050565b6000818152600183016020526040812054611fcb575081546001818101845560008481526020808220909301849055845484825282860190935260409020919091556109c9565b5060006109c9565b6000826000018281548110611ff857634e487b7160e01b600052603260045260246000fd5b9060005260206000200154905092915050565b600081116120815760405162461bcd60e51b815260206004820152603d60248201527f49435044414f3a205f72656d6f766555736572537461636b416d6f756e74576960448201527f7468546f6b656e2072656d6f7665416d6f756e74206e656564203e20300000006064820152608401610321565b336000908152600360205260409020548082111561212d5760405162461bcd60e51b815260206004820152604760248201527f49435044414f3a205f72656d6f766555736572537461636b416d6f756e74576960448201527f7468546f6b656e206e6565642072656d6f7665416d6f756e74203c3d2075736560648201527f72416d6f756e7400000000000000000000000000000000000000000000000000608482015260a401610321565b6001600160a01b03831660009081526004602052604081206001810180549192859261215a908490612b0b565b909155505082821415612193573360009081526003602090815260408083206001600160a01b03881684526001019091528120556106c8565b805464e8d4a51000906121a69085612aec565b6121b09190612acc565b3360009081526003602090815260408083206001600160a01b0389168452600101909152812080549091906121e6908490612b0b565b909155505050505050565b60008181526001830160205260408120548015612304576000612215600183612b0b565b855490915060009061222990600190612b0b565b90508181146122aa57600086600001828154811061225757634e487b7160e01b600052603260045260246000fd5b906000526020600020015490508087600001848154811061228857634e487b7160e01b600052603260045260246000fd5b6000918252602080832090910192909255918252600188019052604090208390555b85548690806122c957634e487b7160e01b600052603160045260246000fd5b6001900381819060005260206000200160009055905585600101600086815260200190815260200160002060009055600193505050506109c9565b60009150506109c9565b6000612363826040518060400160405280602081526020017f5361666545524332303a206c6f772d6c6576656c2063616c6c206661696c6564815250856001600160a01b03166124149092919063ffffffff16565b80519091501561183b578080602001905181019061238191906127b2565b61183b5760405162461bcd60e51b815260206004820152602a60248201527f5361666545524332303a204552433230206f7065726174696f6e20646964206e60448201527f6f742073756363656564000000000000000000000000000000000000000000006064820152608401610321565b80516a636f6e736f6c652e6c6f67602083016000808483855afa5050505050565b6060612423848460008561242b565b949350505050565b6060824710156124a35760405162461bcd60e51b815260206004820152602660248201527f416464726573733a20696e73756666696369656e742062616c616e636520666f60448201527f722063616c6c00000000000000000000000000000000000000000000000000006064820152608401610321565b843b6124f15760405162461bcd60e51b815260206004820152601d60248201527f416464726573733a2063616c6c20746f206e6f6e2d636f6e74726163740000006044820152606401610321565b600080866001600160a01b0316858760405161250d91906128bb565b60006040518083038185875af1925050503d806000811461254a576040519150601f19603f3d011682016040523d82523d6000602084013e61254f565b606091505b509150915061255f82828661256a565b979650505050505050565b60608315612579575081611659565b8251156125895782518084602001fd5b8160405162461bcd60e51b8152600401610321919061298e565b60008083601f8401126125b4578182fd5b50813567ffffffffffffffff8111156125cb578182fd5b6020830191508360208260051b85010111156125e657600080fd5b9250929050565b6000602082840312156125fe578081fd5b813561165981612b95565b6000806040838503121561261b578081fd5b823561262681612b95565b9150602083013561263681612b95565b809150509250929050565b60008060208385031215612653578182fd5b823567ffffffffffffffff811115612669578283fd5b612675858286016125a3565b90969095509350505050565b60006020808385031215612693578182fd5b823567ffffffffffffffff8111156126a9578283fd5b8301601f810185136126b9578283fd5b80356126cc6126c782612a90565b612a5f565b80828252848201915084840188868560051b87010111156126eb578687fd5b8694505b8385101561271657803561270281612b95565b8352600194909401939185019185016126ef565b50979650505050505050565b60006020808385031215612734578182fd5b825167ffffffffffffffff81111561274a578283fd5b8301601f8101851361275a578283fd5b80516127686126c782612a90565b80828252848201915084840188868560051b8701011115612787578687fd5b8694505b8385101561271657805161279e81612b95565b83526001949094019391850191850161278b565b6000602082840312156127c3578081fd5b81518015158114611659578182fd5b6000602082840312156127e3578081fd5b5035919050565b6000602082840312156127fb578081fd5b5051919050565b600080600060408486031215612816578081fd5b83359250602084013567ffffffffffffffff811115612833578182fd5b61283f868287016125a3565b9497909650939450505050565b6000815180845260208085019450808401835b838110156128845781516001600160a01b03168752958201959082019060010161285f565b509495945050505050565b600081518084526128a7816020860160208601612b22565b601f01601f19169290920160200192915050565b600082516128cd818460208701612b22565b9190910192915050565b60208082528181018390526000908460408401835b8681101561291a5782356128ff81612b95565b6001600160a01b0316825291830191908301906001016128ec565b509695505050505050565b602081526000611659602083018461284c565b60408152600061294b604083018561284c565b828103602084810191909152845180835285820192820190845b8181101561298157845183529383019391830191600101612965565b5090979650505050505050565b602081526000611659602083018461288f565b6040815260006129b4604083018561288f565b90506001600160a01b03831660208301529392505050565b6060815260006129df606083018661288f565b6001600160a01b0394909416602083015250901515604090910152919050565b604081526000612a12604083018561288f565b90508260208301529392505050565b606081526000612a34606083018661288f565b60208301949094525060400152919050565b828152604060208201526000612423604083018461284c565b604051601f8201601f1916810167ffffffffffffffff81118282101715612a8857612a88612b7f565b604052919050565b600067ffffffffffffffff821115612aaa57612aaa612b7f565b5060051b60200190565b60008219821115612ac757612ac7612b69565b500190565b600082612ae757634e487b7160e01b81526012600452602481fd5b500490565b6000816000190483118215151615612b0657612b06612b69565b500290565b600082821015612b1d57612b1d612b69565b500390565b60005b83811015612b3d578181015183820152602001612b25565b838111156106c85750506000910152565b6000600019821415612b6257612b62612b69565b5060010190565b634e487b7160e01b600052601160045260246000fd5b634e487b7160e01b600052604160045260246000fd5b6001600160a01b0381168114612baa57600080fd5b5056fe5f75736572735b6d73672e73656e6465725d2e726577617264446562745b746f6b656e5d5f6d696e7457697468546f6b656e20626c616e6365486176654d696e74416d6f756e74a26469706673582212209ac52dcd5658abd7b0c7ae4b36cbd7df4184a0181545f5561def195d6200f56f64736f6c63430008040033",
  "devdoc": {
    "kind": "dev",
    "methods": {},
    "version": 1
  },
  "userdoc": {
    "events": {
      "Deposit(address,uint256)": {
        "notice": "Emitted when deposit."
      }
    },
    "kind": "user",
    "methods": {},
    "version": 1
  },
  "storageLayout": {
    "storage": [
      {
        "astId": 2624,
        "contract": "contracts/DAOStaking.sol:DAOStaking",
        "label": "_owner",
        "offset": 0,
        "slot": "0",
        "type": "t_address_payable"
      },
      {
        "astId": 2627,
        "contract": "contracts/DAOStaking.sol:DAOStaking",
        "label": "ICPD",
        "offset": 0,
        "slot": "1",
        "type": "t_address"
      },
      {
        "astId": 2630,
        "contract": "contracts/DAOStaking.sol:DAOStaking",
        "label": "totalStaking",
        "offset": 0,
        "slot": "2",
        "type": "t_uint256"
      },
      {
        "astId": 2645,
        "contract": "contracts/DAOStaking.sol:DAOStaking",
        "label": "_users",
        "offset": 0,
        "slot": "3",
        "type": "t_mapping(t_address,t_struct(UserInfo)2640_storage)"
      },
      {
        "astId": 2657,
        "contract": "contracts/DAOStaking.sol:DAOStaking",
        "label": "_poolInfos",
        "offset": 0,
        "slot": "4",
        "type": "t_mapping(t_address,t_struct(PoolInfo)2652_storage)"
      }
    ],
    "types": {
      "t_address": {
        "encoding": "inplace",
        "label": "address",
        "numberOfBytes": "20"
      },
      "t_address_payable": {
        "encoding": "inplace",
        "label": "address payable",
        "numberOfBytes": "20"
      },
      "t_array(t_bytes32)dyn_storage": {
        "base": "t_bytes32",
        "encoding": "dynamic_array",
        "label": "bytes32[]",
        "numberOfBytes": "32"
      },
      "t_bytes32": {
        "encoding": "inplace",
        "label": "bytes32",
        "numberOfBytes": "32"
      },
      "t_mapping(t_address,t_struct(PoolInfo)2652_storage)": {
        "encoding": "mapping",
        "key": "t_address",
        "label": "mapping(address => struct DAOStaking.PoolInfo)",
        "numberOfBytes": "32",
        "value": "t_struct(PoolInfo)2652_storage"
      },
      "t_mapping(t_address,t_struct(UserInfo)2640_storage)": {
        "encoding": "mapping",
        "key": "t_address",
        "label": "mapping(address => struct DAOStaking.UserInfo)",
        "numberOfBytes": "32",
        "value": "t_struct(UserInfo)2640_storage"
      },
      "t_mapping(t_address,t_uint256)": {
        "encoding": "mapping",
        "key": "t_address",
        "label": "mapping(address => uint256)",
        "numberOfBytes": "32",
        "value": "t_uint256"
      },
      "t_mapping(t_bytes32,t_uint256)": {
        "encoding": "mapping",
        "key": "t_bytes32",
        "label": "mapping(bytes32 => uint256)",
        "numberOfBytes": "32",
        "value": "t_uint256"
      },
      "t_struct(AddressSet)1657_storage": {
        "encoding": "inplace",
        "label": "struct EnumerableSet.AddressSet",
        "members": [
          {
            "astId": 1656,
            "contract": "contracts/DAOStaking.sol:DAOStaking",
            "label": "_inner",
            "offset": 0,
            "slot": "0",
            "type": "t_struct(Set)1386_storage"
          }
        ],
        "numberOfBytes": "64"
      },
      "t_struct(PoolInfo)2652_storage": {
        "encoding": "inplace",
        "label": "struct DAOStaking.PoolInfo",
        "members": [
          {
            "astId": 2647,
            "contract": "contracts/DAOStaking.sol:DAOStaking",
            "label": "accPerShare",
            "offset": 0,
            "slot": "0",
            "type": "t_uint256"
          },
          {
            "astId": 2649,
            "contract": "contracts/DAOStaking.sol:DAOStaking",
            "label": "userStakingIcpdAmount",
            "offset": 0,
            "slot": "1",
            "type": "t_uint256"
          },
          {
            "astId": 2651,
            "contract": "contracts/DAOStaking.sol:DAOStaking",
            "label": "blanceHaveMintAmount",
            "offset": 0,
            "slot": "2",
            "type": "t_uint256"
          }
        ],
        "numberOfBytes": "96"
      },
      "t_struct(Set)1386_storage": {
        "encoding": "inplace",
        "label": "struct EnumerableSet.Set",
        "members": [
          {
            "astId": 1381,
            "contract": "contracts/DAOStaking.sol:DAOStaking",
            "label": "_values",
            "offset": 0,
            "slot": "0",
            "type": "t_array(t_bytes32)dyn_storage"
          },
          {
            "astId": 1385,
            "contract": "contracts/DAOStaking.sol:DAOStaking",
            "label": "_indexes",
            "offset": 0,
            "slot": "1",
            "type": "t_mapping(t_bytes32,t_uint256)"
          }
        ],
        "numberOfBytes": "64"
      },
      "t_struct(UserInfo)2640_storage": {
        "encoding": "inplace",
        "label": "struct DAOStaking.UserInfo",
        "members": [
          {
            "astId": 2632,
            "contract": "contracts/DAOStaking.sol:DAOStaking",
            "label": "amount",
            "offset": 0,
            "slot": "0",
            "type": "t_uint256"
          },
          {
            "astId": 2636,
            "contract": "contracts/DAOStaking.sol:DAOStaking",
            "label": "rewardDebt",
            "offset": 0,
            "slot": "1",
            "type": "t_mapping(t_address,t_uint256)"
          },
          {
            "astId": 2639,
            "contract": "contracts/DAOStaking.sol:DAOStaking",
            "label": "tokens",
            "offset": 0,
            "slot": "2",
            "type": "t_struct(AddressSet)1657_storage"
          }
        ],
        "numberOfBytes": "128"
      },
      "t_uint256": {
        "encoding": "inplace",
        "label": "uint256",
        "numberOfBytes": "32"
      }
    }
  }
}