{
  "address": "0x088483a6AA7DB6c0E55dF573Af23D176545Ddf36",
  "abi": [
    {
      "inputs": [
        {
          "internalType": "address payable",
          "name": "owner_",
          "type": "address"
        }
      ],
      "stateMutability": "nonpayable",
      "type": "constructor"
    },
    {
      "anonymous": false,
      "inputs": [
        {
          "indexed": true,
          "internalType": "address",
          "name": "user",
          "type": "address"
        },
        {
          "indexed": false,
          "internalType": "address[]",
          "name": "tokenList",
          "type": "address[]"
        }
      ],
      "name": "AddTokenList",
      "type": "event"
    },
    {
      "anonymous": false,
      "inputs": [
        {
          "indexed": true,
          "internalType": "address",
          "name": "token",
          "type": "address"
        },
        {
          "indexed": false,
          "internalType": "address",
          "name": "user",
          "type": "address"
        },
        {
          "indexed": false,
          "internalType": "uint256",
          "name": "reward",
          "type": "uint256"
        }
      ],
      "name": "Bonus",
      "type": "event"
    },
    {
      "anonymous": false,
      "inputs": [
        {
          "indexed": true,
          "internalType": "address",
          "name": "user",
          "type": "address"
        },
        {
          "indexed": false,
          "internalType": "uint256",
          "name": "amount",
          "type": "uint256"
        }
      ],
      "name": "Deposit",
      "type": "event"
    },
    {
      "anonymous": false,
      "inputs": [
        {
          "indexed": true,
          "internalType": "address",
          "name": "user",
          "type": "address"
        },
        {
          "indexed": false,
          "internalType": "address[]",
          "name": "tokenList",
          "type": "address[]"
        }
      ],
      "name": "RemoveTokenList",
      "type": "event"
    },
    {
      "anonymous": false,
      "inputs": [
        {
          "indexed": false,
          "internalType": "address",
          "name": "_newOwner",
          "type": "address"
        }
      ],
      "name": "TransferOwnership",
      "type": "event"
    },
    {
      "anonymous": false,
      "inputs": [
        {
          "indexed": true,
          "internalType": "address",
          "name": "token",
          "type": "address"
        },
        {
          "indexed": false,
          "internalType": "uint256",
          "name": "amount",
          "type": "uint256"
        },
        {
          "indexed": false,
          "internalType": "uint256",
          "name": "accPerShare",
          "type": "uint256"
        },
        {
          "indexed": false,
          "internalType": "uint256",
          "name": "lastRewardBlock",
          "type": "uint256"
        }
      ],
      "name": "UpdateBonus",
      "type": "event"
    },
    {
      "anonymous": false,
      "inputs": [
        {
          "indexed": true,
          "internalType": "address",
          "name": "user",
          "type": "address"
        },
        {
          "indexed": false,
          "internalType": "uint256",
          "name": "amount",
          "type": "uint256"
        }
      ],
      "name": "Withdraw",
      "type": "event"
    },
    {
      "inputs": [],
      "name": "ICPD",
      "outputs": [
        {
          "internalType": "address",
          "name": "",
          "type": "address"
        }
      ],
      "stateMutability": "view",
      "type": "function"
    },
    {
      "inputs": [
        {
          "internalType": "address[]",
          "name": "_addTokenList",
          "type": "address[]"
        }
      ],
      "name": "addTokenList",
      "outputs": [],
      "stateMutability": "nonpayable",
      "type": "function"
    },
    {
      "inputs": [
        {
          "internalType": "address",
          "name": "user",
          "type": "address"
        }
      ],
      "name": "bonus",
      "outputs": [
        {
          "internalType": "address[]",
          "name": "tokens",
          "type": "address[]"
        },
        {
          "internalType": "uint256[]",
          "name": "amounts",
          "type": "uint256[]"
        }
      ],
      "stateMutability": "view",
      "type": "function"
    },
    {
      "inputs": [
        {
          "internalType": "address[]",
          "name": "_token_list",
          "type": "address[]"
        }
      ],
      "name": "bonusWithdraw",
      "outputs": [],
      "stateMutability": "nonpayable",
      "type": "function"
    },
    {
      "inputs": [
        {
          "internalType": "uint256",
          "name": "_amount",
          "type": "uint256"
        },
        {
          "internalType": "address[]",
          "name": "_addTokenList",
          "type": "address[]"
        }
      ],
      "name": "deposit",
      "outputs": [],
      "stateMutability": "nonpayable",
      "type": "function"
    },
    {
      "inputs": [],
      "name": "destruct",
      "outputs": [],
      "stateMutability": "nonpayable",
      "type": "function"
    },
    {
      "inputs": [],
      "name": "owner",
      "outputs": [
        {
          "internalType": "address",
          "name": "result",
          "type": "address"
        }
      ],
      "stateMutability": "view",
      "type": "function"
    },
    {
      "inputs": [
        {
          "internalType": "address",
          "name": "_token",
          "type": "address"
        }
      ],
      "name": "poolInfo",
      "outputs": [
        {
          "internalType": "uint256",
          "name": "accPerShare",
          "type": "uint256"
        },
        {
          "internalType": "uint256",
          "name": "userStakingIcpdAmount",
          "type": "uint256"
        },
        {
          "internalType": "uint256",
          "name": "blanceHaveMintAmount",
          "type": "uint256"
        }
      ],
      "stateMutability": "view",
      "type": "function"
    },
    {
      "inputs": [
        {
          "internalType": "address[]",
          "name": "_removeTokenList",
          "type": "address[]"
        }
      ],
      "name": "removeTokenList",
      "outputs": [],
      "stateMutability": "nonpayable",
      "type": "function"
    },
    {
      "inputs": [
        {
          "internalType": "address",
          "name": "_ICPD",
          "type": "address"
        }
      ],
      "name": "setICPToken",
      "outputs": [],
      "stateMutability": "nonpayable",
      "type": "function"
    },
    {
      "inputs": [
        {
          "internalType": "address",
          "name": "user",
          "type": "address"
        }
      ],
      "name": "tokenList",
      "outputs": [
        {
          "internalType": "address[]",
          "name": "",
          "type": "address[]"
        }
      ],
      "stateMutability": "view",
      "type": "function"
    },
    {
      "inputs": [],
      "name": "totalStaking",
      "outputs": [
        {
          "internalType": "uint256",
          "name": "",
          "type": "uint256"
        }
      ],
      "stateMutability": "view",
      "type": "function"
    },
    {
      "inputs": [
        {
          "internalType": "address payable",
          "name": "newOwner",
          "type": "address"
        }
      ],
      "name": "transferOwnership",
      "outputs": [],
      "stateMutability": "nonpayable",
      "type": "function"
    },
    {
      "inputs": [
        {
          "internalType": "address",
          "name": "_user",
          "type": "address"
        }
      ],
      "name": "userInfo",
      "outputs": [
        {
          "internalType": "uint256",
          "name": "amount",
          "type": "uint256"
        },
        {
          "internalType": "address[]",
          "name": "tokens",
          "type": "address[]"
        }
      ],
      "stateMutability": "view",
      "type": "function"
    },
    {
      "inputs": [
        {
          "internalType": "address",
          "name": "_user",
          "type": "address"
        },
        {
          "internalType": "address",
          "name": "_token",
          "type": "address"
        }
      ],
      "name": "userRewardDebt",
      "outputs": [
        {
          "internalType": "uint256",
          "name": "rewardDebt",
          "type": "uint256"
        }
      ],
      "stateMutability": "view",
      "type": "function"
    },
    {
      "inputs": [
        {
          "internalType": "uint256",
          "name": "_amount",
          "type": "uint256"
        }
      ],
      "name": "withdraw",
      "outputs": [],
      "stateMutability": "nonpayable",
      "type": "function"
    }
  ],
  "transactionHash": "0x923bce65481df59234f0b9a33626d94cbd91d69778081e81edc3a8de7b1ee443",
  "args": [
    "0x3946d96a4b46657ca95CBE85d8a60b822186Ad1f"
  ],
  "solcInputHash": "f69a72076c027afc78e230ca62f81ac9",
  "bytecode": "0x60806040523480156200001157600080fd5b5060405162002bd438038062002bd483398101604081905262000034916200005a565b600080546001600160a01b0319166001600160a01b03929092169190911790556200008a565b6000602082840312156200006c578081fd5b81516001600160a01b038116811462000083578182fd5b9392505050565b612b3a806200009a6000396000f3fe608060405234801561001057600080fd5b50600436106101005760003560e01c806373b65b8911610097578063b44b58f111610066578063b44b58f11461027e578063d8cb4aa314610291578063e1e1f750146102b2578063f2fde38b146102c557600080fd5b806373b65b89146101e257806385d7cf86146101f55780638da5cb5b146102085780639a7b5f111461022d57600080fd5b80631d030ac9116100d35780631d030ac91461016a5780632b68b9c6146101a75780632e1a7d4d146101af57806364e9f35f146101c257600080fd5b8063165defa41461010557806316c15c751461012157806317259338146101365780631959a00214610149575b600080fd5b61010e60025481565b6040519081526020015b60405180910390f35b61013461012f366004612551565b6102d8565b005b610134610144366004612591565b61052c565b61015c6101573660046124fd565b6106b8565b604051610118929190612956565b61010e610178366004612519565b6001600160a01b0391821660009081526003602090815260408083209390941682526001909201909152205490565b610134610751565b6101346101bd3660046126e2565b6107c5565b6101d56101d03660046124fd565b6109a8565b6040516101189190612835565b6101346101f03660046124fd565b6109b9565b610134610203366004612712565b610ae5565b6000546001600160a01b03165b6040516001600160a01b039091168152602001610118565b61026361023b3660046124fd565b6001600160a01b03166000908152600460205260409020805460018201546002909201549092565b60408051938452602084019290925290820152606001610118565b61013461028c366004612551565b610f27565b6102a461029f3660046124fd565b611121565b604051610118929190612848565b600154610215906001600160a01b031681565b6101346102d33660046124fd565b6114f2565b8061032a5760405162461bcd60e51b815260206004820152601d60248201527f5f616464546f6b656e4c6973742063616e6e6f7420626520656d70747900000060448201526064015b60405180910390fd5b33600090815260036020526040902054806103875760405162461bcd60e51b815260206004820181905260248201527f616464546f6b656e4c697374206e6565642075736572416d6f756e74203e20306044820152606401610321565b336000908152600360205260408120600201905b8381101561046c5760008585838181106103c557634e487b7160e01b600052603260045260246000fd5b90506020020160208101906103da91906124fd565b90506103e683826115b4565b156104595760405162461bcd60e51b815260206004820152603660248201527f49435044414f3a205f616464546f6b656e4c697374204841564520544f4b454e60448201527f20434f4e5441494e53206f6c64546f6b656e4c697374000000000000000000006064820152608401610321565b508061046481612a5e565b91505061039b565b5060005b838110156104e257600085858381811061049a57634e487b7160e01b600052603260045260246000fd5b90506020020160208101906104af91906124fd565b90506104ba816115d9565b6104c3816117b9565b6104cd83826118bf565b505080806104da90612a5e565b915050610470565b50336001600160a01b03167f3d32594c5102d51489860224033bd45051204343ebb92530eae03f013f3cd31d858560405161051e9291906127e7565b60405180910390a250505050565b33600090815260036020526040902054806105895760405162461bcd60e51b815260206004820152601960248201527f49435044414f3a20594f55204e4f2048415645205354414b45000000000000006044820152606401610321565b336000908152600360205260408120600201905b83518110156106545760008482815181106105c857634e487b7160e01b600052603260045260246000fd5b602002602001015190506105e581846115b490919063ffffffff16565b6106415760405162461bcd60e51b815260206004820152602760248201527f49435044414f3a205f746f6b656e5f6c6973742048415645204e4f205354414b60448201526622902a27a5a2a760c91b6064820152608401610321565b508061064c81612a5e565b91505061059d565b5060005b83518110156106b257600084828151811061068357634e487b7160e01b600052603260045260246000fd5b60200260200101519050610696816115d9565b61069f816118d4565b50806106aa81612a5e565b915050610658565b50505050565b6001600160a01b038116600081815260036020526040908190205490516364e9f35f60e01b815260048101929092529060609030906364e9f35f9060240160006040518083038186803b15801561070e57600080fd5b505afa158015610722573d6000803e3d6000fd5b505050506040513d6000823e601f3d908101601f1916820160405261074a9190810190612632565b9050915091565b6000546001600160a01b031633146107b75760405162461bcd60e51b8152602060048201526024808201527f49435044414f3a204f4e4c59204f574e45522043414e2043414c4c2044455354604482015263149550d560e21b6064820152608401610321565b6000546001600160a01b0316ff5b33600090815260036020526040902054808211156107e257600080fd5b336000908152600360205260408120600201906107fe82611a8a565b67ffffffffffffffff81111561082457634e487b7160e01b600052604160045260246000fd5b60405190808252806020026020018201604052801561084d578160200160208202803683370190505b50905060005b61085c83611a8a565b8110156108b75761086d8382611a94565b82828151811061088d57634e487b7160e01b600052603260045260246000fd5b6001600160a01b0390921660209283029190910190910152806108af81612a5e565b915050610853565b5060005b81518110156109215760008282815181106108e657634e487b7160e01b600052603260045260246000fd5b602002602001015190506108fa8187611aa0565b8486141561090e5761090c8482611abc565b505b508061091981612a5e565b9150506108bb565b503360009081526003602052604081208054869290610941908490612a1b565b92505081905550836002600082825461095a9190612a1b565b9091555050600154610976906001600160a01b03163386611ad1565b60405184815233907f884edad9ce6fa2440d8a54cc123490eb96d2768479d49ff9c7366125a94243649060200161051e565b60606109b382611b4c565b92915050565b6000546001600160a01b03163314610a075760405162461bcd60e51b815260206004820152601160248201527024a1a82220a79d102727aa1027aba722a960791b6044820152606401610321565b6001600160a01b038116610a5d5760405162461bcd60e51b815260206004820152601560248201527f49435044414f3a205f4943504420494e56414c494400000000000000000000006044820152606401610321565b6001546001600160a01b031615610ab65760405162461bcd60e51b815260206004820152601b60248201527f49435044414f3a204943504420414444524553532045584954535400000000006044820152606401610321565b6001805473ffffffffffffffffffffffffffffffffffffffff19166001600160a01b0392909216919091179055565b60008311610b355760405162461bcd60e51b815260206004820152601660248201527f49435044414f3a20414d4f554e54204953205a45524f000000000000000000006044820152606401610321565b33301415610b855760405162461bcd60e51b815260206004820152601560248201527f49435044414f3a2053454e4445522049532044414f00000000000000000000006044820152606401610321565b6001546001600160a01b0316610bdd5760405162461bcd60e51b815260206004820152601e60248201527f49435044414f3a20494350442043414e4e4f54206164647265737328302900006044820152606401610321565b336000908152600360205260408120600201905b82811015610cc2576000848483818110610c1b57634e487b7160e01b600052603260045260246000fd5b9050602002016020810190610c3091906124fd565b9050610c3c83826115b4565b15610caf5760405162461bcd60e51b815260206004820152603660248201527f49435044414f3a205f616464546f6b656e4c697374204841564520544f4b454e60448201527f20434f4e5441494e53206f6c64546f6b656e4c697374000000000000000000006064820152608401610321565b5080610cba81612a5e565b915050610bf1565b506000610cce82611a8a565b1115610d1d5760005b610ce082611a8a565b811015610d1b57610d09610cf48383611a94565b33600090815260036020526040902054611aa0565b80610d1381612a5e565b915050610cd7565b505b60005b82811015610d7d576000848483818110610d4a57634e487b7160e01b600052603260045260246000fd5b9050602002016020810190610d5f91906124fd565b9050610d6a816115d9565b5080610d7581612a5e565b915050610d20565b50600154610d96906001600160a01b0316333087611c33565b3360009081526003602052604081208054869290610db59084906129c4565b925050819055508360026000828254610dce91906129c4565b9091555060009050610ddf82611a8a565b1115610e245760005b610df182611a8a565b811015610e22576000610e048383611a94565b9050610e0f816117b9565b5080610e1a81612a5e565b915050610de8565b505b610e5a6040518060400160405280600c81526020016b1bdb19151bdad95b931a5cdd60a21b815250610e5583611a8a565b611c6b565b60005b82811015610ef0576000848483818110610e8757634e487b7160e01b600052603260045260246000fd5b9050602002016020810190610e9c91906124fd565b9050610ea7816117b9565b6000610eb384836118bf565b9050610edb6040518060400160405280600381526020016218591960ea1b8152508383611cb0565b50508080610ee890612a5e565b915050610e5d565b5060408051808201909152600c81526b1bdb19151bdad95b931a5cdd60a21b60208201526106b29083610f2284611a8a565b611cf7565b80610f745760405162461bcd60e51b815260206004820181905260248201527f5f72656d6f7665546f6b656e4c6973742063616e6e6f7420626520656d7074796044820152606401610321565b336000908152600360205260408120600201905b82811015611058576000848483818110610fb257634e487b7160e01b600052603260045260246000fd5b9050602002016020810190610fc791906124fd565b9050610fd383826115b4565b6110455760405162461bcd60e51b815260206004820152603d60248201527f49435044414f3a205f72656d6f7665546f6b656e4c697374204841564520544f60448201527f4b454e204e4f5420434f4e5441494e53206f6c64546f6b656e4c6973740000006064820152608401610321565b508061105081612a5e565b915050610f88565b5060005b828110156110d857600084848381811061108657634e487b7160e01b600052603260045260246000fd5b905060200201602081019061109b91906124fd565b336000908152600360205260409020549091506110b9908290611aa0565b6110c38382611abc565b505080806110d090612a5e565b91505061105c565b50336001600160a01b03167f7fcfae621b7a5967478b981b4cc5b034823a7196b4c60f86413928755980276184846040516111149291906127e7565b60405180910390a2505050565b60608061114b60405180604001604052806005815260200164626f6e757360d81b81525084611d3e565b61115483611b4c565b9150815167ffffffffffffffff81111561117e57634e487b7160e01b600052604160045260246000fd5b6040519080825280602002602001820160405280156111a7578160200160208202803683370190505b50905060005b82518110156114ec5760008382815181106111d857634e487b7160e01b600052603260045260246000fd5b6020908102919091018101516001600160a01b03811660009081526004909252604082209092509061120983611d83565b82549091508115801590611221575060008360010154115b1561129a57600183015460009061123d8464e8d4a510006129fc565b61124791906129dc565b84549091506112579082906129c4565b91506112986040518060400160405280601781526020017f6164644d6f636b416363546f6b656e506572536861726500000000000000000081525082611c6b565b505b6112dd6040518060400160405280601581526020017f706f6f6c2e616363546f6b656e506572536861726500000000000000000000008152508460000154611c6b565b61131c6040518060400160405280601481526020017f6d6f636b416363546f6b656e506572536861726500000000000000000000000081525082611c6b565b61135b6040518060400160405280600c81526020017f756e4d696e74416d6f756e74000000000000000000000000000000000000000081525083611c6b565b6113ab60405180604001604052806006815260200165185b5bdd5b9d60d21b815250600360008b6001600160a01b03166001600160a01b0316815260200190815260200160002060000154611c6b565b604080518082018252600a8152691c995dd85c991119589d60b21b6020808301919091526001600160a01b03808c166000908152600383528481209189168152600190910190915291909120546114029190611c6b565b6001600160a01b038089166000818152600360208181526040808420958a168452600186018252832054939092529052905464e8d4a51000906114469084906129fc565b61145091906129dc565b61145a9190612a1b565b86868151811061147a57634e487b7160e01b600052603260045260246000fd5b6020026020010181815250506114d5604051806040016040528060068152602001651c995cdd5b1d60d21b8152508787815181106114c857634e487b7160e01b600052603260045260246000fd5b6020026020010151611c6b565b5050505080806114e490612a5e565b9150506111ad565b50915091565b6000546001600160a01b031633146115405760405162461bcd60e51b815260206004820152601160248201527024a1a82220a79d102727aa1027aba722a960791b6044820152606401610321565b6001600160a01b03811661155357600080fd5b6000805473ffffffffffffffffffffffffffffffffffffffff19166001600160a01b0383169081179091556040519081527fcfaaa26691e16e66e73290fc725eee1a6b4e0e693a1640484937aac25ffb55a49060200160405180910390a150565b6001600160a01b038116600090815260018301602052604081205415155b9392505050565b60006115e482611d83565b6001600160a01b03831660009081526004602052604090209091508115801590611612575060008160010154115b156117b457600181015460009061162e8464e8d4a510006129fc565b61163891906129dc565b90508082600001600082825461164e91906129c4565b9091555050600182015464e8d4a510009061166990836129fc565b61167391906129dc565b82600201600082825461168691906129c4565b909155505060408051808201909152601d81527f5f6d696e7457697468546f6b656e20616464416363506572536861726500000060208201526116c99082611c6b565b61170c6040518060400160405280601f81526020017f5f6d696e7457697468546f6b656e20706f6f6c2e6163635065725368617265008152508360000154611c6b565b61174f6040518060400160405280601a81526020017f706f6f6c2e757365725374616b696e6749637064416d6f756e740000000000008152508360010154611c6b565b61178e6040518060400160405280601b81526020017f5f6d696e7457697468546f6b656e20756e4d696e74416d6f756e74000000000081525084611c6b565b6106b2604051806060016040528060238152602001612ae2602391398360020154611c6b565b505050565b336000908152600360205260409020548061183c5760405162461bcd60e51b815260206004820152603060248201527f5f61646455736572537461636b416d6f756e7457697468546f6b656e206e656560448201527f642075736572416d6f756e74203e2030000000000000000000000000000000006064820152608401610321565b6001600160a01b0382166000908152600460205260408120600181018054919284926118699084906129c4565b9091555050805464e8d4a51000906118829084906129fc565b61188c91906129dc565b3360009081526003602090815260408083206001600160a01b039790971683526001909601905293909320929092555050565b60006115d2836001600160a01b038416611ed4565b336000908152600360205260409020548015611a86576001600160a01b0382166000818152600460209081526040808320338452600383528184209484526001909401909152812054825464e8d4a510009061193090866129fc565b61193a91906129dc565b6119449190612a1b565b905080156106b257611957843383611ad1565b8082600201546119679190612a1b565b60028301553360009081526003602090815260408083206001600160a01b0388168452600101909152812080548392906119a29084906129c4565b909155505060408051808201909152600781526670656e64696e6760c81b60208201526119cf9082611c6b565b611a17604051806060016040528060248152602001612abe602491393360009081526003602090815260408083206001600160a01b038a168452600101909152902054611c6b565b611a436040518060400160405280600a8152602001691d5cd95c905b5bdd5b9d60b21b81525084611c6b565b6106b26040518060400160405280601081526020017f616363546f6b656e5065725368617265000000000000000000000000000000008152508360000154611c6b565b5050565b60006109b3825490565b60006115d28383611f23565b611aa9826115d9565b611ab2826118d4565b611a868282611f5b565b60006115d2836001600160a01b03841661212b565b6040516001600160a01b0383166024820152604481018290526117b490849063a9059cbb60e01b906064015b60408051601f198184030181529190526020810180516001600160e01b03167fffffffff0000000000000000000000000000000000000000000000000000000090931692909217909152612248565b6001600160a01b0381166000908152600360205260409020606090600201611b7381611a8a565b67ffffffffffffffff811115611b9957634e487b7160e01b600052604160045260246000fd5b604051908082528060200260200182016040528015611bc2578160200160208202803683370190505b50915060005b611bd182611a8a565b811015611c2c57611be28282611a94565b838281518110611c0257634e487b7160e01b600052603260045260246000fd5b6001600160a01b039092166020928302919091019091015280611c2481612a5e565b915050611bc8565b5050919050565b6040516001600160a01b03808516602483015283166044820152606481018290526106b29085906323b872dd60e01b90608401611afd565b611a868282604051602401611c8192919061290f565b60408051601f198184030181529190526020810180516001600160e01b03166309710a9d60e41b17905261231a565b6117b4838383604051602401611cc8939291906128dc565b60408051601f198184030181529190526020810180516001600160e01b031663324757b560e21b17905261231a565b6117b4838383604051602401611d0f93929190612931565b60408051601f198184030181529190526020810180516001600160e01b031663969cdd0360e01b17905261231a565b611a868282604051602401611d549291906128b1565b60408051601f198184030181529190526020810180516001600160e01b031663319af33360e01b17905261231a565b6001600160a01b0380821660008181526004602052604081206001549193909291161415611e455760028181015490546040516370a0823160e01b81523060048201526001600160a01b038616906370a082319060240160206040518083038186803b158015611df257600080fd5b505afa158015611e06573d6000803e3d6000fd5b505050506040513d601f19601f82011682018060405250810190611e2a91906126fa565b611e349190612a1b565b611e3e9190612a1b565b9150611ece565b60028101546040516370a0823160e01b81523060048201526001600160a01b038516906370a082319060240160206040518083038186803b158015611e8957600080fd5b505afa158015611e9d573d6000803e3d6000fd5b505050506040513d601f19601f82011682018060405250810190611ec191906126fa565b611ecb9190612a1b565b91505b50919050565b6000818152600183016020526040812054611f1b575081546001818101845560008481526020808220909301849055845484825282860190935260409020919091556109b3565b5060006109b3565b6000826000018281548110611f4857634e487b7160e01b600052603260045260246000fd5b9060005260206000200154905092915050565b60008111611fd15760405162461bcd60e51b815260206004820152603d60248201527f49435044414f3a205f72656d6f766555736572537461636b416d6f756e74576960448201527f7468546f6b656e2072656d6f7665416d6f756e74206e656564203e20300000006064820152608401610321565b33600090815260036020526040902054808211156120675760405162461bcd60e51b815260206004820152604760248201527f49435044414f3a205f72656d6f766555736572537461636b416d6f756e74576960448201527f7468546f6b656e206e6565642072656d6f7665416d6f756e74203c3d207573656064820152661c905b5bdd5b9d60ca1b608482015260a401610321565b6001600160a01b038316600090815260046020526040812060018101805491928592612094908490612a1b565b9091555050828214156120cd573360009081526003602090815260408083206001600160a01b03881684526001019091528120556106b2565b805464e8d4a51000906120e090856129fc565b6120ea91906129dc565b3360009081526003602090815260408083206001600160a01b038916845260010190915281208054909190612120908490612a1b565b909155505050505050565b6000818152600183016020526040812054801561223e57600061214f600183612a1b565b855490915060009061216390600190612a1b565b90508181146121e457600086600001828154811061219157634e487b7160e01b600052603260045260246000fd5b90600052602060002001549050808760000184815481106121c257634e487b7160e01b600052603260045260246000fd5b6000918252602080832090910192909255918252600188019052604090208390555b855486908061220357634e487b7160e01b600052603160045260246000fd5b6001900381819060005260206000200160009055905585600101600086815260200190815260200160002060009055600193505050506109b3565b60009150506109b3565b600061229d826040518060400160405280602081526020017f5361666545524332303a206c6f772d6c6576656c2063616c6c206661696c6564815250856001600160a01b031661233b9092919063ffffffff16565b8051909150156117b457808060200190518101906122bb91906126c2565b6117b45760405162461bcd60e51b815260206004820152602a60248201527f5361666545524332303a204552433230206f7065726174696f6e20646964206e6044820152691bdd081cdd58d8d9595960b21b6064820152608401610321565b80516a636f6e736f6c652e6c6f67602083016000808483855afa5050505050565b606061234a8484600085612352565b949350505050565b6060824710156123b35760405162461bcd60e51b815260206004820152602660248201527f416464726573733a20696e73756666696369656e742062616c616e636520666f6044820152651c8818d85b1b60d21b6064820152608401610321565b843b6124015760405162461bcd60e51b815260206004820152601d60248201527f416464726573733a2063616c6c20746f206e6f6e2d636f6e74726163740000006044820152606401610321565b600080866001600160a01b0316858760405161241d91906127cb565b60006040518083038185875af1925050503d806000811461245a576040519150601f19603f3d011682016040523d82523d6000602084013e61245f565b606091505b509150915061246f82828661247a565b979650505050505050565b606083156124895750816115d2565b8251156124995782518084602001fd5b8160405162461bcd60e51b8152600401610321919061289e565b60008083601f8401126124c4578182fd5b50813567ffffffffffffffff8111156124db578182fd5b6020830191508360208260051b85010111156124f657600080fd5b9250929050565b60006020828403121561250e578081fd5b81356115d281612aa5565b6000806040838503121561252b578081fd5b823561253681612aa5565b9150602083013561254681612aa5565b809150509250929050565b60008060208385031215612563578182fd5b823567ffffffffffffffff811115612579578283fd5b612585858286016124b3565b90969095509350505050565b600060208083850312156125a3578182fd5b823567ffffffffffffffff8111156125b9578283fd5b8301601f810185136125c9578283fd5b80356125dc6125d7826129a0565b61296f565b80828252848201915084840188868560051b87010111156125fb578687fd5b8694505b8385101561262657803561261281612aa5565b8352600194909401939185019185016125ff565b50979650505050505050565b60006020808385031215612644578182fd5b825167ffffffffffffffff81111561265a578283fd5b8301601f8101851361266a578283fd5b80516126786125d7826129a0565b80828252848201915084840188868560051b8701011115612697578687fd5b8694505b838510156126265780516126ae81612aa5565b83526001949094019391850191850161269b565b6000602082840312156126d3578081fd5b815180151581146115d2578182fd5b6000602082840312156126f3578081fd5b5035919050565b60006020828403121561270b578081fd5b5051919050565b600080600060408486031215612726578081fd5b83359250602084013567ffffffffffffffff811115612743578182fd5b61274f868287016124b3565b9497909650939450505050565b6000815180845260208085019450808401835b838110156127945781516001600160a01b03168752958201959082019060010161276f565b509495945050505050565b600081518084526127b7816020860160208601612a32565b601f01601f19169290920160200192915050565b600082516127dd818460208701612a32565b9190910192915050565b60208082528181018390526000908460408401835b8681101561282a57823561280f81612aa5565b6001600160a01b0316825291830191908301906001016127fc565b509695505050505050565b6020815260006115d2602083018461275c565b60408152600061285b604083018561275c565b828103602084810191909152845180835285820192820190845b8181101561289157845183529383019391830191600101612875565b5090979650505050505050565b6020815260006115d2602083018461279f565b6040815260006128c4604083018561279f565b90506001600160a01b03831660208301529392505050565b6060815260006128ef606083018661279f565b6001600160a01b0394909416602083015250901515604090910152919050565b604081526000612922604083018561279f565b90508260208301529392505050565b606081526000612944606083018661279f565b60208301949094525060400152919050565b82815260406020820152600061234a604083018461275c565b604051601f8201601f1916810167ffffffffffffffff8111828210171561299857612998612a8f565b604052919050565b600067ffffffffffffffff8211156129ba576129ba612a8f565b5060051b60200190565b600082198211156129d7576129d7612a79565b500190565b6000826129f757634e487b7160e01b81526012600452602481fd5b500490565b6000816000190483118215151615612a1657612a16612a79565b500290565b600082821015612a2d57612a2d612a79565b500390565b60005b83811015612a4d578181015183820152602001612a35565b838111156106b25750506000910152565b6000600019821415612a7257612a72612a79565b5060010190565b634e487b7160e01b600052601160045260246000fd5b634e487b7160e01b600052604160045260246000fd5b6001600160a01b0381168114612aba57600080fd5b5056fe5f75736572735b6d73672e73656e6465725d2e726577617264446562745b746f6b656e5d5f6d696e7457697468546f6b656e20626c616e6365486176654d696e74416d6f756e74a264697066735822122019974f2d3d0afdf2cef20255cae29ef789bdc4142e24ce47a84476bd1038056464736f6c63430008040033",
  "devdoc": {
    "kind": "dev",
    "methods": {},
    "version": 1
  },
  "userdoc": {
    "events": {
      "Deposit(address,uint256)": {
        "notice": "Emitted when deposit."
      }
    },
    "kind": "user",
    "methods": {},
    "version": 1
  },
  "storageLayout": {
    "storage": [
      {
        "astId": 2624,
        "contract": "contracts/DAOStaking.sol:DAOStaking",
        "label": "_owner",
        "offset": 0,
        "slot": "0",
        "type": "t_address_payable"
      },
      {
        "astId": 2627,
        "contract": "contracts/DAOStaking.sol:DAOStaking",
        "label": "ICPD",
        "offset": 0,
        "slot": "1",
        "type": "t_address"
      },
      {
        "astId": 2630,
        "contract": "contracts/DAOStaking.sol:DAOStaking",
        "label": "totalStaking",
        "offset": 0,
        "slot": "2",
        "type": "t_uint256"
      },
      {
        "astId": 2645,
        "contract": "contracts/DAOStaking.sol:DAOStaking",
        "label": "_users",
        "offset": 0,
        "slot": "3",
        "type": "t_mapping(t_address,t_struct(UserInfo)2640_storage)"
      },
      {
        "astId": 2657,
        "contract": "contracts/DAOStaking.sol:DAOStaking",
        "label": "_poolInfos",
        "offset": 0,
        "slot": "4",
        "type": "t_mapping(t_address,t_struct(PoolInfo)2652_storage)"
      }
    ],
    "types": {
      "t_address": {
        "encoding": "inplace",
        "label": "address",
        "numberOfBytes": "20"
      },
      "t_address_payable": {
        "encoding": "inplace",
        "label": "address payable",
        "numberOfBytes": "20"
      },
      "t_array(t_bytes32)dyn_storage": {
        "base": "t_bytes32",
        "encoding": "dynamic_array",
        "label": "bytes32[]",
        "numberOfBytes": "32"
      },
      "t_bytes32": {
        "encoding": "inplace",
        "label": "bytes32",
        "numberOfBytes": "32"
      },
      "t_mapping(t_address,t_struct(PoolInfo)2652_storage)": {
        "encoding": "mapping",
        "key": "t_address",
        "label": "mapping(address => struct DAOStaking.PoolInfo)",
        "numberOfBytes": "32",
        "value": "t_struct(PoolInfo)2652_storage"
      },
      "t_mapping(t_address,t_struct(UserInfo)2640_storage)": {
        "encoding": "mapping",
        "key": "t_address",
        "label": "mapping(address => struct DAOStaking.UserInfo)",
        "numberOfBytes": "32",
        "value": "t_struct(UserInfo)2640_storage"
      },
      "t_mapping(t_address,t_uint256)": {
        "encoding": "mapping",
        "key": "t_address",
        "label": "mapping(address => uint256)",
        "numberOfBytes": "32",
        "value": "t_uint256"
      },
      "t_mapping(t_bytes32,t_uint256)": {
        "encoding": "mapping",
        "key": "t_bytes32",
        "label": "mapping(bytes32 => uint256)",
        "numberOfBytes": "32",
        "value": "t_uint256"
      },
      "t_struct(AddressSet)1657_storage": {
        "encoding": "inplace",
        "label": "struct EnumerableSet.AddressSet",
        "members": [
          {
            "astId": 1656,
            "contract": "contracts/DAOStaking.sol:DAOStaking",
            "label": "_inner",
            "offset": 0,
            "slot": "0",
            "type": "t_struct(Set)1386_storage"
          }
        ],
        "numberOfBytes": "64"
      },
      "t_struct(PoolInfo)2652_storage": {
        "encoding": "inplace",
        "label": "struct DAOStaking.PoolInfo",
        "members": [
          {
            "astId": 2647,
            "contract": "contracts/DAOStaking.sol:DAOStaking",
            "label": "accPerShare",
            "offset": 0,
            "slot": "0",
            "type": "t_uint256"
          },
          {
            "astId": 2649,
            "contract": "contracts/DAOStaking.sol:DAOStaking",
            "label": "userStakingIcpdAmount",
            "offset": 0,
            "slot": "1",
            "type": "t_uint256"
          },
          {
            "astId": 2651,
            "contract": "contracts/DAOStaking.sol:DAOStaking",
            "label": "blanceHaveMintAmount",
            "offset": 0,
            "slot": "2",
            "type": "t_uint256"
          }
        ],
        "numberOfBytes": "96"
      },
      "t_struct(Set)1386_storage": {
        "encoding": "inplace",
        "label": "struct EnumerableSet.Set",
        "members": [
          {
            "astId": 1381,
            "contract": "contracts/DAOStaking.sol:DAOStaking",
            "label": "_values",
            "offset": 0,
            "slot": "0",
            "type": "t_array(t_bytes32)dyn_storage"
          },
          {
            "astId": 1385,
            "contract": "contracts/DAOStaking.sol:DAOStaking",
            "label": "_indexes",
            "offset": 0,
            "slot": "1",
            "type": "t_mapping(t_bytes32,t_uint256)"
          }
        ],
        "numberOfBytes": "64"
      },
      "t_struct(UserInfo)2640_storage": {
        "encoding": "inplace",
        "label": "struct DAOStaking.UserInfo",
        "members": [
          {
            "astId": 2632,
            "contract": "contracts/DAOStaking.sol:DAOStaking",
            "label": "amount",
            "offset": 0,
            "slot": "0",
            "type": "t_uint256"
          },
          {
            "astId": 2636,
            "contract": "contracts/DAOStaking.sol:DAOStaking",
            "label": "rewardDebt",
            "offset": 0,
            "slot": "1",
            "type": "t_mapping(t_address,t_uint256)"
          },
          {
            "astId": 2639,
            "contract": "contracts/DAOStaking.sol:DAOStaking",
            "label": "tokens",
            "offset": 0,
            "slot": "2",
            "type": "t_struct(AddressSet)1657_storage"
          }
        ],
        "numberOfBytes": "128"
      },
      "t_uint256": {
        "encoding": "inplace",
        "label": "uint256",
        "numberOfBytes": "32"
      }
    }
  }
}